{
  "_format": "hh-sol-artifact-1",
  "contractName": "LandRegistry",
  "sourceName": "contracts/LandRegistry.sol",
  "abi": [
    {
      "inputs": [
        {
          "internalType": "address",
          "name": "_kycAddress",
          "type": "address"
        }
      ],
      "stateMutability": "nonpayable",
      "type": "constructor"
    },
    {
      "anonymous": false,
      "inputs": [
        {
          "indexed": false,
          "internalType": "uint256",
          "name": "landId",
          "type": "uint256"
        },
        {
          "indexed": false,
          "internalType": "address",
          "name": "currentOwner",
          "type": "address"
        },
        {
          "indexed": false,
          "internalType": "string",
          "name": "state",
          "type": "string"
        },
        {
          "indexed": false,
          "internalType": "string",
          "name": "lga",
          "type": "string"
        },
        {
          "indexed": false,
          "internalType": "uint256",
          "name": "area",
          "type": "uint256"
        },
        {
          "indexed": false,
          "internalType": "enum LandRegistry.LandUse",
          "name": "landuse",
          "type": "uint8"
        },
        {
          "indexed": false,
          "internalType": "string",
          "name": "landIpfs",
          "type": "string"
        },
        {
          "indexed": false,
          "internalType": "bool",
          "name": "isVerified",
          "type": "bool"
        },
        {
          "indexed": false,
          "internalType": "uint256",
          "name": "registrationDate",
          "type": "uint256"
        }
      ],
      "name": "LandCreated",
      "type": "event"
    },
    {
      "anonymous": false,
      "inputs": [
        {
          "indexed": false,
          "internalType": "address",
          "name": "currentOwner",
          "type": "address"
        },
        {
          "indexed": false,
          "internalType": "uint256",
          "name": "transferDate",
          "type": "uint256"
        },
        {
          "indexed": false,
          "internalType": "enum LandRegistry.TransferStatus",
          "name": "transferStatus",
          "type": "uint8"
        }
      ],
      "name": "LandUpdate",
      "type": "event"
    },
    {
      "anonymous": false,
      "inputs": [
        {
          "indexed": true,
          "internalType": "uint256",
          "name": "_landId",
          "type": "uint256"
        }
      ],
      "name": "verifiedLand",
      "type": "event"
    },
    {
      "inputs": [
        {
          "internalType": "address",
          "name": "owner",
          "type": "address"
        },
        {
          "internalType": "uint256",
          "name": "landId",
          "type": "uint256"
        }
      ],
      "name": "doesOwnerHaveLand",
      "outputs": [
        {
          "internalType": "bool",
          "name": "",
          "type": "bool"
        }
      ],
      "stateMutability": "view",
      "type": "function"
    },
    {
      "inputs": [],
      "name": "getAllLand",
      "outputs": [
        {
          "components": [
            {
              "internalType": "uint256",
              "name": "landId",
              "type": "uint256"
            },
            {
              "internalType": "address",
              "name": "currentOwner",
              "type": "address"
            },
            {
              "internalType": "string",
              "name": "state",
              "type": "string"
            },
            {
              "internalType": "string",
              "name": "lga",
              "type": "string"
            },
            {
              "internalType": "uint256",
              "name": "area",
              "type": "uint256"
            },
            {
              "internalType": "enum LandRegistry.LandUse",
              "name": "landUse",
              "type": "uint8"
            },
            {
              "internalType": "string",
              "name": "landIpfs",
              "type": "string"
            },
            {
              "internalType": "bool",
              "name": "isVerified",
              "type": "bool"
            },
            {
              "internalType": "address[]",
              "name": "ownershipHistory",
              "type": "address[]"
            },
            {
              "internalType": "uint256",
              "name": "registrationDate",
              "type": "uint256"
            },
            {
              "internalType": "uint256",
              "name": "lastTransferDate",
              "type": "uint256"
            },
            {
              "internalType": "enum LandRegistry.TransferStatus",
              "name": "transferStatus",
              "type": "uint8"
            }
          ],
          "internalType": "struct LandRegistry.LandData[]",
          "name": "",
          "type": "tuple[]"
        }
      ],
      "stateMutability": "view",
      "type": "function"
    },
    {
      "inputs": [
        {
          "internalType": "uint256",
          "name": "_landId",
          "type": "uint256"
        }
      ],
      "name": "getLand",
      "outputs": [
        {
          "components": [
            {
              "internalType": "uint256",
              "name": "landId",
              "type": "uint256"
            },
            {
              "internalType": "address",
              "name": "currentOwner",
              "type": "address"
            },
            {
              "internalType": "string",
              "name": "state",
              "type": "string"
            },
            {
              "internalType": "string",
              "name": "lga",
              "type": "string"
            },
            {
              "internalType": "uint256",
              "name": "area",
              "type": "uint256"
            },
            {
              "internalType": "enum LandRegistry.LandUse",
              "name": "landUse",
              "type": "uint8"
            },
            {
              "internalType": "string",
              "name": "landIpfs",
              "type": "string"
            },
            {
              "internalType": "bool",
              "name": "isVerified",
              "type": "bool"
            },
            {
              "internalType": "address[]",
              "name": "ownershipHistory",
              "type": "address[]"
            },
            {
              "internalType": "uint256",
              "name": "registrationDate",
              "type": "uint256"
            },
            {
              "internalType": "uint256",
              "name": "lastTransferDate",
              "type": "uint256"
            },
            {
              "internalType": "enum LandRegistry.TransferStatus",
              "name": "transferStatus",
              "type": "uint8"
            }
          ],
          "internalType": "struct LandRegistry.LandData",
          "name": "",
          "type": "tuple"
        }
      ],
      "stateMutability": "view",
      "type": "function"
    },
    {
      "inputs": [
        {
          "internalType": "address",
          "name": "owner",
          "type": "address"
        }
      ],
      "name": "getLandCount",
      "outputs": [
        {
          "internalType": "uint256",
          "name": "",
          "type": "uint256"
        }
      ],
      "stateMutability": "view",
      "type": "function"
    },
    {
      "inputs": [
        {
          "internalType": "string",
          "name": "_state",
          "type": "string"
        }
      ],
      "name": "getLandsByState",
      "outputs": [
        {
          "components": [
            {
              "internalType": "uint256",
              "name": "landId",
              "type": "uint256"
            },
            {
              "internalType": "address",
              "name": "currentOwner",
              "type": "address"
            },
            {
              "internalType": "string",
              "name": "state",
              "type": "string"
            },
            {
              "internalType": "string",
              "name": "lga",
              "type": "string"
            },
            {
              "internalType": "uint256",
              "name": "area",
              "type": "uint256"
            },
            {
              "internalType": "enum LandRegistry.LandUse",
              "name": "landUse",
              "type": "uint8"
            },
            {
              "internalType": "string",
              "name": "landIpfs",
              "type": "string"
            },
            {
              "internalType": "bool",
              "name": "isVerified",
              "type": "bool"
            },
            {
              "internalType": "address[]",
              "name": "ownershipHistory",
              "type": "address[]"
            },
            {
              "internalType": "uint256",
              "name": "registrationDate",
              "type": "uint256"
            },
            {
              "internalType": "uint256",
              "name": "lastTransferDate",
              "type": "uint256"
            },
            {
              "internalType": "enum LandRegistry.TransferStatus",
              "name": "transferStatus",
              "type": "uint8"
            }
          ],
          "internalType": "struct LandRegistry.LandData[]",
          "name": "",
          "type": "tuple[]"
        }
      ],
      "stateMutability": "view",
      "type": "function"
    },
    {
      "inputs": [
        {
          "internalType": "enum LandRegistry.LandUse",
          "name": "_landUse",
          "type": "uint8"
        }
      ],
      "name": "getLandsByUse",
      "outputs": [
        {
          "components": [
            {
              "internalType": "uint256",
              "name": "landId",
              "type": "uint256"
            },
            {
              "internalType": "address",
              "name": "currentOwner",
              "type": "address"
            },
            {
              "internalType": "string",
              "name": "state",
              "type": "string"
            },
            {
              "internalType": "string",
              "name": "lga",
              "type": "string"
            },
            {
              "internalType": "uint256",
              "name": "area",
              "type": "uint256"
            },
            {
              "internalType": "enum LandRegistry.LandUse",
              "name": "landUse",
              "type": "uint8"
            },
            {
              "internalType": "string",
              "name": "landIpfs",
              "type": "string"
            },
            {
              "internalType": "bool",
              "name": "isVerified",
              "type": "bool"
            },
            {
              "internalType": "address[]",
              "name": "ownershipHistory",
              "type": "address[]"
            },
            {
              "internalType": "uint256",
              "name": "registrationDate",
              "type": "uint256"
            },
            {
              "internalType": "uint256",
              "name": "lastTransferDate",
              "type": "uint256"
            },
            {
              "internalType": "enum LandRegistry.TransferStatus",
              "name": "transferStatus",
              "type": "uint8"
            }
          ],
          "internalType": "struct LandRegistry.LandData[]",
          "name": "",
          "type": "tuple[]"
        }
      ],
      "stateMutability": "view",
      "type": "function"
    },
    {
      "inputs": [
        {
          "internalType": "address",
          "name": "owner",
          "type": "address"
        }
      ],
      "name": "getOwnedLands",
      "outputs": [
        {
          "internalType": "uint256[]",
          "name": "",
          "type": "uint256[]"
        }
      ],
      "stateMutability": "view",
      "type": "function"
    },
    {
      "inputs": [
        {
          "internalType": "uint256",
          "name": "_landId",
          "type": "uint256"
        }
      ],
      "name": "getOwnershipHistory",
      "outputs": [
        {
          "internalType": "address[]",
          "name": "",
          "type": "address[]"
        }
      ],
      "stateMutability": "view",
      "type": "function"
    },
    {
      "inputs": [],
      "name": "getTotalLandCount",
      "outputs": [
        {
          "internalType": "uint256",
          "name": "",
          "type": "uint256"
        }
      ],
      "stateMutability": "view",
      "type": "function"
    },
    {
      "inputs": [],
      "name": "getVerifiedLands",
      "outputs": [
        {
          "components": [
            {
              "internalType": "uint256",
              "name": "landId",
              "type": "uint256"
            },
            {
              "internalType": "address",
              "name": "currentOwner",
              "type": "address"
            },
            {
              "internalType": "string",
              "name": "state",
              "type": "string"
            },
            {
              "internalType": "string",
              "name": "lga",
              "type": "string"
            },
            {
              "internalType": "uint256",
              "name": "area",
              "type": "uint256"
            },
            {
              "internalType": "enum LandRegistry.LandUse",
              "name": "landUse",
              "type": "uint8"
            },
            {
              "internalType": "string",
              "name": "landIpfs",
              "type": "string"
            },
            {
              "internalType": "bool",
              "name": "isVerified",
              "type": "bool"
            },
            {
              "internalType": "address[]",
              "name": "ownershipHistory",
              "type": "address[]"
            },
            {
              "internalType": "uint256",
              "name": "registrationDate",
              "type": "uint256"
            },
            {
              "internalType": "uint256",
              "name": "lastTransferDate",
              "type": "uint256"
            },
            {
              "internalType": "enum LandRegistry.TransferStatus",
              "name": "transferStatus",
              "type": "uint8"
            }
          ],
          "internalType": "struct LandRegistry.LandData[]",
          "name": "",
          "type": "tuple[]"
        }
      ],
      "stateMutability": "view",
      "type": "function"
    },
    {
      "inputs": [
        {
          "internalType": "address",
          "name": "",
          "type": "address"
        }
      ],
      "name": "isLandOwner",
      "outputs": [
        {
          "internalType": "bool",
          "name": "",
          "type": "bool"
        }
      ],
      "stateMutability": "view",
      "type": "function"
    },
    {
      "inputs": [
        {
          "internalType": "uint256",
          "name": "_landId",
          "type": "uint256"
        }
      ],
      "name": "isVerified",
      "outputs": [
        {
          "internalType": "bool",
          "name": "",
          "type": "bool"
        }
      ],
      "stateMutability": "view",
      "type": "function"
    },
    {
      "inputs": [],
      "name": "kyc",
      "outputs": [
        {
          "internalType": "contract IKYC",
          "name": "",
          "type": "address"
        }
      ],
      "stateMutability": "view",
      "type": "function"
    },
    {
      "inputs": [
        {
          "internalType": "address",
          "name": "",
          "type": "address"
        }
      ],
      "name": "landCount",
      "outputs": [
        {
          "internalType": "uint256",
          "name": "",
          "type": "uint256"
        }
      ],
      "stateMutability": "view",
      "type": "function"
    },
    {
      "inputs": [
        {
          "internalType": "uint256",
          "name": "",
          "type": "uint256"
        }
      ],
      "name": "landList",
      "outputs": [
        {
          "internalType": "uint256",
          "name": "landId",
          "type": "uint256"
        },
        {
          "internalType": "address",
          "name": "currentOwner",
          "type": "address"
        },
        {
          "internalType": "string",
          "name": "state",
          "type": "string"
        },
        {
          "internalType": "string",
          "name": "lga",
          "type": "string"
        },
        {
          "internalType": "uint256",
          "name": "area",
          "type": "uint256"
        },
        {
          "internalType": "enum LandRegistry.LandUse",
          "name": "landUse",
          "type": "uint8"
        },
        {
          "internalType": "string",
          "name": "landIpfs",
          "type": "string"
        },
        {
          "internalType": "bool",
          "name": "isVerified",
          "type": "bool"
        },
        {
          "internalType": "uint256",
          "name": "registrationDate",
          "type": "uint256"
        },
        {
          "internalType": "uint256",
          "name": "lastTransferDate",
          "type": "uint256"
        },
        {
          "internalType": "enum LandRegistry.TransferStatus",
          "name": "transferStatus",
          "type": "uint8"
        }
      ],
      "stateMutability": "view",
      "type": "function"
    },
    {
      "inputs": [
        {
          "internalType": "address",
          "name": "",
          "type": "address"
        }
      ],
      "name": "landOwners",
      "outputs": [
        {
          "internalType": "address",
          "name": "landOwnerAddress",
          "type": "address"
        },
        {
          "internalType": "bool",
          "name": "isActive",
          "type": "bool"
        }
      ],
      "stateMutability": "view",
      "type": "function"
    },
    {
      "inputs": [
        {
          "internalType": "address",
          "name": "",
          "type": "address"
        },
        {
          "internalType": "uint256",
          "name": "",
          "type": "uint256"
        }
      ],
      "name": "ownsLand",
      "outputs": [
        {
          "internalType": "bool",
          "name": "",
          "type": "bool"
        }
      ],
      "stateMutability": "view",
      "type": "function"
    },
    {
      "inputs": [
        {
          "internalType": "string",
          "name": "_state",
          "type": "string"
        },
        {
          "internalType": "string",
          "name": "_lga",
          "type": "string"
        },
        {
          "internalType": "uint256",
          "name": "_area",
          "type": "uint256"
        },
        {
          "internalType": "enum LandRegistry.LandUse",
          "name": "_landUse",
          "type": "uint8"
        },
        {
          "internalType": "string",
          "name": "_ipfs",
          "type": "string"
        }
      ],
      "name": "registerLand",
      "outputs": [],
      "stateMutability": "nonpayable",
      "type": "function"
    },
    {
      "inputs": [
        {
          "internalType": "uint256",
          "name": "_landId",
          "type": "uint256"
        },
        {
          "internalType": "address",
          "name": "_newOwner",
          "type": "address"
        }
      ],
      "name": "transferLand",
      "outputs": [],
      "stateMutability": "nonpayable",
      "type": "function"
    },
    {
      "inputs": [
        {
          "internalType": "uint256",
          "name": "_landId",
          "type": "uint256"
        }
      ],
      "name": "verifyLand",
      "outputs": [],
      "stateMutability": "nonpayable",
      "type": "function"
    }
  ],
  "bytecode": "0x6080604052348015600f57600080fd5b50604051613423380380613423833981016040819052602c916050565b600080546001600160a01b0319166001600160a01b0392909216919091179055607e565b600060208284031215606157600080fd5b81516001600160a01b0381168114607757600080fd5b9392505050565b6133968061008d6000396000f3fe608060405234801561001057600080fd5b506004361061012c5760003560e01c806387757e34116100ad578063c798ff7d11610071578063c798ff7d14610314578063d5e4215114610327578063f02dd53f14610351578063f1dbaccb14610371578063f9c43bdf1461039157600080fd5b806387757e341461028057806390d6b45f1461028857806397f88f25146102b3578063c328ad7a146102d3578063c66753bc146102e657600080fd5b8063519ea705116100f4578063519ea705146101db5780635c8f6629146101fb57806363ff41df1461020357806367b571421461021657806384a968521461026b57600080fd5b806332b4813e1461013157806337b6d96b1461016d5780634c1174b0146101905780634c6fb8c7146101b05780634dc3c326146101b8575b600080fd5b61015a61013f366004612a85565b6001600160a01b031660009081526008602052604090205490565b6040519081526020015b60405180910390f35b61018061017b366004612aa7565b6103a4565b6040519015158152602001610164565b6101a361019e366004612acf565b6103ee565b6040516101649190612ca2565b6101a361086a565b6101806101c6366004612a85565b60036020526000908152604090205460ff1681565b6101ee6101e9366004612a85565b610c9f565b6040516101649190612d07565b60015461015a565b6101a3610211366004612def565b610d0b565b61024c610224366004612a85565b600260208190526000918252604090912080549101546001600160a01b039091169060ff1682565b604080516001600160a01b039093168352901515602083015201610164565b61027e610279366004612e2c565b611165565b005b6101a36117a7565b60005461029b906001600160a01b031681565b6040516001600160a01b039091168152602001610164565b61015a6102c1366004612a85565b60086020526000908152604090205481565b6101806102e1366004612edb565b611acf565b6101806102f4366004612edb565b600760209081526000928352604080842090915290825290205460ff1681565b61027e610322366004612f05565b611afd565b61033a610335366004612aa7565b6120b3565b6040516101649b9a99989796959493929190612f31565b61036461035f366004612aa7565b6122cb565b6040516101649190612fcc565b61038461037f366004612aa7565b61260a565b6040516101649190612fdf565b61027e61039f366004612aa7565b6126b5565b600154600090829081106103d35760405162461bcd60e51b81526004016103ca90613020565b60405180910390fd5b60008381526004602052604090205460ff1691505b50919050565b60606000805b6001548110156104665783600181111561041057610410612b30565b600182815481106104235761042361304d565b600091825260209091206005600c90920201015460ff16600181111561044b5761044b612b30565b0361045e578161045a81613079565b9250505b6001016103f4565b5060008167ffffffffffffffff81111561048257610482612d4a565b6040519080825280602002602001820160405280156104bb57816020015b6104a86128e7565b8152602001906001900390816104a05790505b5090506000805b600154811015610860578560018111156104de576104de612b30565b600182815481106104f1576104f161304d565b600091825260209091206005600c90920201015460ff16600181111561051957610519612b30565b0361085857600181815481106105315761053161304d565b90600052602060002090600c020160405180610180016040529081600082015481526020016001820160009054906101000a90046001600160a01b03166001600160a01b03166001600160a01b0316815260200160028201805461059490613092565b80601f01602080910402602001604051908101604052809291908181526020018280546105c090613092565b801561060d5780601f106105e25761010080835404028352916020019161060d565b820191906000526020600020905b8154815290600101906020018083116105f057829003601f168201915b5050505050815260200160038201805461062690613092565b80601f016020809104026020016040519081016040528092919081815260200182805461065290613092565b801561069f5780601f106106745761010080835404028352916020019161069f565b820191906000526020600020905b81548152906001019060200180831161068257829003601f168201915b505050918352505060048201546020820152600582015460409091019060ff1660018111156106d0576106d0612b30565b60018111156106e1576106e1612b30565b81526020016006820180546106f590613092565b80601f016020809104026020016040519081016040528092919081815260200182805461072190613092565b801561076e5780601f106107435761010080835404028352916020019161076e565b820191906000526020600020905b81548152906001019060200180831161075157829003601f168201915b5050509183525050600782015460ff16151560208083019190915260088301805460408051828502810185018252828152940193928301828280156107dc57602002820191906000526020600020905b81546001600160a01b031681526001909101906020018083116107be575b505050918352505060098201546020820152600a8201546040820152600b82015460609091019060ff16600281111561081757610817612b30565b600281111561082857610828612b30565b8152505083838151811061083e5761083e61304d565b6020026020010181905250818061085490613079565b9250505b6001016104c2565b5090949350505050565b60606000805b6001548110156108bf576001818154811061088d5761088d61304d565b600091825260209091206007600c90920201015460ff16156108b757816108b381613079565b9250505b600101610870565b5060008167ffffffffffffffff8111156108db576108db612d4a565b60405190808252806020026020018201604052801561091457816020015b6109016128e7565b8152602001906001900390816108f95790505b5090506000805b600154811015610c9657600181815481106109385761093861304d565b600091825260209091206007600c90920201015460ff1615610c8e57600181815481106109675761096761304d565b90600052602060002090600c020160405180610180016040529081600082015481526020016001820160009054906101000a90046001600160a01b03166001600160a01b03166001600160a01b031681526020016002820180546109ca90613092565b80601f01602080910402602001604051908101604052809291908181526020018280546109f690613092565b8015610a435780601f10610a1857610100808354040283529160200191610a43565b820191906000526020600020905b815481529060010190602001808311610a2657829003601f168201915b50505050508152602001600382018054610a5c90613092565b80601f0160208091040260200160405190810160405280929190818152602001828054610a8890613092565b8015610ad55780601f10610aaa57610100808354040283529160200191610ad5565b820191906000526020600020905b815481529060010190602001808311610ab857829003601f168201915b505050918352505060048201546020820152600582015460409091019060ff166001811115610b0657610b06612b30565b6001811115610b1757610b17612b30565b8152602001600682018054610b2b90613092565b80601f0160208091040260200160405190810160405280929190818152602001828054610b5790613092565b8015610ba45780601f10610b7957610100808354040283529160200191610ba4565b820191906000526020600020905b815481529060010190602001808311610b8757829003601f168201915b5050509183525050600782015460ff1615156020808301919091526008830180546040805182850281018501825282815294019392830182828015610c1257602002820191906000526020600020905b81546001600160a01b03168152600190910190602001808311610bf4575b505050918352505060098201546020820152600a8201546040820152600b82015460609091019060ff166002811115610c4d57610c4d612b30565b6002811115610c5e57610c5e612b30565b81525050838381518110610c7457610c7461304d565b60200260200101819052508180610c8a90613079565b9250505b60010161091b565b50909392505050565b6001600160a01b038116600090815260066020908152604091829020805483518184028101840190945280845260609392830182828015610cff57602002820191906000526020600020905b815481526020019060010190808311610ceb575b50505050509050919050565b60606000805b600154811015610d7757838051906020012060018281548110610d3657610d3661304d565b90600052602060002090600c0201600201604051610d5491906130c6565b604051809103902003610d6f5781610d6b81613079565b9250505b600101610d11565b5060008167ffffffffffffffff811115610d9357610d93612d4a565b604051908082528060200260200182016040528015610dcc57816020015b610db96128e7565b815260200190600190039081610db15790505b5090506000805b60015481101561086057858051906020012060018281548110610df857610df861304d565b90600052602060002090600c0201600201604051610e1691906130c6565b60405180910390200361115d5760018181548110610e3657610e3661304d565b90600052602060002090600c020160405180610180016040529081600082015481526020016001820160009054906101000a90046001600160a01b03166001600160a01b03166001600160a01b03168152602001600282018054610e9990613092565b80601f0160208091040260200160405190810160405280929190818152602001828054610ec590613092565b8015610f125780601f10610ee757610100808354040283529160200191610f12565b820191906000526020600020905b815481529060010190602001808311610ef557829003601f168201915b50505050508152602001600382018054610f2b90613092565b80601f0160208091040260200160405190810160405280929190818152602001828054610f5790613092565b8015610fa45780601f10610f7957610100808354040283529160200191610fa4565b820191906000526020600020905b815481529060010190602001808311610f8757829003601f168201915b505050918352505060048201546020820152600582015460409091019060ff166001811115610fd557610fd5612b30565b6001811115610fe657610fe6612b30565b8152602001600682018054610ffa90613092565b80601f016020809104026020016040519081016040528092919081815260200182805461102690613092565b80156110735780601f1061104857610100808354040283529160200191611073565b820191906000526020600020905b81548152906001019060200180831161105657829003601f168201915b5050509183525050600782015460ff16151560208083019190915260088301805460408051828502810185018252828152940193928301828280156110e157602002820191906000526020600020905b81546001600160a01b031681526001909101906020018083116110c3575b505050918352505060098201546020820152600a8201546040820152600b82015460609091019060ff16600281111561111c5761111c612b30565b600281111561112d5761112d612b30565b815250508383815181106111435761114361304d565b6020026020010181905250818061115990613079565b9250505b600101610dd3565b60005460405163056720bf60e51b81523360048201526001600160a01b039091169063ace417e090602401602060405180830381865afa1580156111ad573d6000803e3d6000fd5b505050506040513d601f19601f820116820180604052508101906111d1919061313b565b6112175760405162461bcd60e51b815260206004820152601760248201527612d650c815995c9a599a58d85d1a5bdb881b9959591959604a1b60448201526064016103ca565b6112556040518060400160405280601c81526020017f72656769737465724c616e642066756e6374696f6e2063616c6c6564000000008152506127b2565b60018054604080518381528082019091529091600091906020808301908036833701905050905033816000815181106112905761129061304d565b60200260200101906001600160a01b031690816001600160a01b0316815250506000604051806101800160405280848152602001336001600160a01b031681526020018981526020018881526020018781526020018660018111156112f7576112f7612b30565b81526020018581526020016000151581526020018381526020014281526020014281526020016000600281111561133057611330612b30565b905260018054808201825560009190915281517fb10e2d527612073b26eecdfd717e6a320cf44b4afac2b0732d9fcbe2b7fa0cf6600c90920291820190815560208301517fb10e2d527612073b26eecdfd717e6a320cf44b4afac2b0732d9fcbe2b7fa0cf7830180546001600160a01b0319166001600160a01b039092169190911790556040830151929350839290917fb10e2d527612073b26eecdfd717e6a320cf44b4afac2b0732d9fcbe2b7fa0cf801906113ed90826131ac565b506060820151600382019061140290826131ac565b506080820151600482015560a082015160058201805460ff19166001838181111561142f5761142f612b30565b021790555060c0820151600682019061144890826131ac565b5060e082015160078201805460ff1916911515919091179055610100820151805161147d916008840191602090910190612974565b506101208201516009820155610140820151600a820155610160820151600b8201805460ff191660018360028111156114b8576114b8612b30565b0217905550505060008381526005602090815260409182902083518155908301516001820180546001600160a01b0319166001600160a01b0390921691909117905590820151829190600282019061151090826131ac565b506060820151600382019061152590826131ac565b506080820151600482015560a082015160058201805460ff19166001838181111561155257611552612b30565b021790555060c0820151600682019061156b90826131ac565b5060e082015160078201805460ff191691151591909117905561010082015180516115a0916008840191602090910190612974565b506101208201516009820155610140820151600a820155610160820151600b8201805460ff191660018360028111156115db576115db612b30565b021790555050506000838152600460209081526040808320805460ff1990811690915533808552600684528285208054600181810183559187528587200189905581865260078552838620898752855283862080549093161790915583526008909152812080549161164c83613079565b90915550503360009081526003602052604090205460ff1661175557604080516060810182523380825260009081526006602090815290839020805484518184028101840190955280855292938285019390928301828280156116ce57602002820191906000526020600020905b8154815260200190600101908083116116ba575b5050509183525050600160209182018190523360009081526002835260409020835181546001600160a01b0319166001600160a01b039091161781558383015180519193611721938501929101906129d9565b506040918201516002909101805491151560ff19928316179055336000908152600360205291909120805490911660011790555b7f8a001bea4e2217c2744628a16f10802605d2e0e1322861281bd7506bbc0a80d083338a8a8a8a8a6000426040516117959998979695949392919061326b565b60405180910390a15050505050505050565b60606001805480602002602001604051908101604052809291908181526020016000905b82821015611ac65760008481526020908190206040805161018081018252600c86029092018054835260018101546001600160a01b0316938301939093526002830180549293929184019161181f90613092565b80601f016020809104026020016040519081016040528092919081815260200182805461184b90613092565b80156118985780601f1061186d57610100808354040283529160200191611898565b820191906000526020600020905b81548152906001019060200180831161187b57829003601f168201915b505050505081526020016003820180546118b190613092565b80601f01602080910402602001604051908101604052809291908181526020018280546118dd90613092565b801561192a5780601f106118ff5761010080835404028352916020019161192a565b820191906000526020600020905b81548152906001019060200180831161190d57829003601f168201915b505050918352505060048201546020820152600582015460409091019060ff16600181111561195b5761195b612b30565b600181111561196c5761196c612b30565b815260200160068201805461198090613092565b80601f01602080910402602001604051908101604052809291908181526020018280546119ac90613092565b80156119f95780601f106119ce576101008083540402835291602001916119f9565b820191906000526020600020905b8154815290600101906020018083116119dc57829003601f168201915b5050509183525050600782015460ff1615156020808301919091526008830180546040805182850281018501825282815294019392830182828015611a6757602002820191906000526020600020905b81546001600160a01b03168152600190910190602001808311611a49575b505050918352505060098201546020820152600a8201546040820152600b82015460609091019060ff166002811115611aa257611aa2612b30565b6002811115611ab357611ab3612b30565b81525050815260200190600101906117cb565b50505050905090565b6001600160a01b038216600090815260076020908152604080832084845290915290205460ff165b92915050565b60005460405163056720bf60e51b81523360048201526001600160a01b039091169063ace417e090602401602060405180830381865afa158015611b45573d6000803e3d6000fd5b505050506040513d601f19601f82011682018060405250810190611b69919061313b565b611baf5760405162461bcd60e51b815260206004820152601760248201527612d650c815995c9a599a58d85d1a5bdb881b9959591959604a1b60448201526064016103ca565b60015482908110611bd25760405162461bcd60e51b81526004016103ca90613020565b600060018481548110611be757611be761304d565b600091825260209091206001600c90920201908101549091506001600160a01b03163314611c575760405162461bcd60e51b815260206004820181905260248201527f4f6e6c7920746865206f776e65722063616e207472616e73666572206c616e6460448201526064016103ca565b6001600160a01b038316611ca15760405162461bcd60e51b815260206004820152601160248201527024b73b30b634b2103732bb9037bbb732b960791b60448201526064016103ca565b60005460405163056720bf60e51b81526001600160a01b0385811660048301529091169063ace417e090602401602060405180830381865afa158015611ceb573d6000803e3d6000fd5b505050506040513d601f19601f82011682018060405250810190611d0f919061313b565b611d5b5760405162461bcd60e51b815260206004820152601e60248201527f4e6577206f776e6572206d757374206265204b5943207665726966696564000060448201526064016103ca565b60018101546001600160a01b031660008181526007602090815260408083208884528252808320805460ff1916905583835260089091528120805491611da0836132e9565b9190505550611daf81866127f8565b600182810180546001600160a01b0387166001600160a01b0319918216811790925542600a8601556008808601805480860182556000918252602080832090910180549094168517909355600b8701805460ff199081166002179091558482526007845260408083208c84528552808320805490921690961790559283529052908120805491611e3e83613079565b90915550506001600160a01b038416600081815260066020908152604080832080546001810182559084528284200189905592825260039052205460ff16611f8757604080516060810182526001600160a01b0386168082526000908152600660209081529083902080548451818402810184019095528085529293828501939092830182828015611eef57602002820191906000526020600020905b815481526020019060010190808311611edb575b5050509183525050600160209182018190526001600160a01b0387811660009081526002845260409020845181546001600160a01b03191692169190911781558383015180519193611f46938501929101906129d9565b506040918201516002909101805491151560ff199283161790556001600160a01b038616600090815260036020529190912080549091166001179055611fe5565b6001600160a01b038416600090815260066020908152604080832060029092529091208154611fbc9260019092019190612a14565b506001600160a01b038416600090815260026020819052604090912001805460ff191660011790555b6001600160a01b038116600090815260086020526040812054900361202d576001600160a01b038116600090815260026020819052604090912001805460ff19169055612064565b6001600160a01b0381166000908152600660209081526040808320600290925290912081546120629260019092019190612a14565b505b600a820154600b8301546040517f8bee0b9a13e377a566d828cec2ed39a75c71f88d4127d913207563fabdc593e8926120a492889260ff90911690613300565b60405180910390a15050505050565b600181815481106120c357600080fd5b60009182526020909120600c90910201805460018201546002830180549294506001600160a01b0390911692916120f990613092565b80601f016020809104026020016040519081016040528092919081815260200182805461212590613092565b80156121725780601f1061214757610100808354040283529160200191612172565b820191906000526020600020905b81548152906001019060200180831161215557829003601f168201915b50505050509080600301805461218790613092565b80601f01602080910402602001604051908101604052809291908181526020018280546121b390613092565b80156122005780601f106121d557610100808354040283529160200191612200565b820191906000526020600020905b8154815290600101906020018083116121e357829003601f168201915b50505050600483015460058401546006850180549495929460ff90921693509061222990613092565b80601f016020809104026020016040519081016040528092919081815260200182805461225590613092565b80156122a25780601f10612277576101008083540402835291602001916122a2565b820191906000526020600020905b81548152906001019060200180831161228557829003601f168201915b50505060078401546009850154600a860154600b90960154949560ff928316959194509250168b565b6122d36128e7565b600154829081106122f65760405162461bcd60e51b81526004016103ca90613020565b600183815481106123095761230961304d565b90600052602060002090600c020160405180610180016040529081600082015481526020016001820160009054906101000a90046001600160a01b03166001600160a01b03166001600160a01b0316815260200160028201805461236c90613092565b80601f016020809104026020016040519081016040528092919081815260200182805461239890613092565b80156123e55780601f106123ba576101008083540402835291602001916123e5565b820191906000526020600020905b8154815290600101906020018083116123c857829003601f168201915b505050505081526020016003820180546123fe90613092565b80601f016020809104026020016040519081016040528092919081815260200182805461242a90613092565b80156124775780601f1061244c57610100808354040283529160200191612477565b820191906000526020600020905b81548152906001019060200180831161245a57829003601f168201915b505050918352505060048201546020820152600582015460409091019060ff1660018111156124a8576124a8612b30565b60018111156124b9576124b9612b30565b81526020016006820180546124cd90613092565b80601f01602080910402602001604051908101604052809291908181526020018280546124f990613092565b80156125465780601f1061251b57610100808354040283529160200191612546565b820191906000526020600020905b81548152906001019060200180831161252957829003601f168201915b5050509183525050600782015460ff16151560208083019190915260088301805460408051828502810185018252828152940193928301828280156125b457602002820191906000526020600020905b81546001600160a01b03168152600190910190602001808311612596575b505050918352505060098201546020820152600a8201546040820152600b82015460609091019060ff1660028111156125ef576125ef612b30565b600281111561260057612600612b30565b9052509392505050565b600154606090829081106126305760405162461bcd60e51b81526004016103ca90613020565b600183815481106126435761264361304d565b90600052602060002090600c02016008018054806020026020016040519081016040528092919081815260200182805480156126a857602002820191906000526020600020905b81546001600160a01b0316815260019091019060200180831161268a575b5050505050915050919050565b600154819081106126d85760405162461bcd60e51b81526004016103ca90613020565b600082815260046020526040902054829060ff16156127315760405162461bcd60e51b815260206004820152601560248201527413185b9908185b1c9958591e481d995c9a599a5959605a1b60448201526064016103ca565b6000600184815481106127465761274661304d565b600091825260208083206007600c90930201918201805460ff1990811660019081179092558885526004909252604080852080549093169091179091555190925085917ff55e0413f8ce4b6b376fe3c40f28944166aaae5f59ba769159dbebfc8c77ac7b91a250505050565b6127f5816040516024016127c69190613324565b60408051601f198184030181529190526020810180516001600160e01b031663104c13eb60e21b1790526128c2565b50565b6001600160a01b0382166000908152600660205260408120905b81548110156128bc578282828154811061282e5761282e61304d565b9060005260206000200154036128b4578154829061284e90600190613337565b8154811061285e5761285e61304d565b906000526020600020015482828154811061287b5761287b61304d565b9060005260206000200181905550818054806128995761289961334a565b600190038181906000526020600020016000905590556128bc565b600101612812565b50505050565b6127f58160006a636f6e736f6c652e6c6f679050600080835160208501845afa505050565b6040518061018001604052806000815260200160006001600160a01b031681526020016060815260200160608152602001600081526020016000600181111561293257612932612b30565b8152602001606081526020016000151581526020016060815260200160008152602001600081526020016000600281111561296f5761296f612b30565b905290565b8280548282559060005260206000209081019282156129c9579160200282015b828111156129c957825182546001600160a01b0319166001600160a01b03909116178255602090920191600190910190612994565b506129d5929150612a54565b5090565b8280548282559060005260206000209081019282156129c9579160200282015b828111156129c95782518255916020019190600101906129f9565b8280548282559060005260206000209081019282156129c95760005260206000209182015b828111156129c9578254825591600101919060010190612a39565b5b808211156129d55760008155600101612a55565b80356001600160a01b0381168114612a8057600080fd5b919050565b600060208284031215612a9757600080fd5b612aa082612a69565b9392505050565b600060208284031215612ab957600080fd5b5035919050565b803560028110612a8057600080fd5b600060208284031215612ae157600080fd5b612aa082612ac0565b6000815180845260005b81811015612b1057602081850181015186830182015201612af4565b506000602082860101526020601f19601f83011685010191505092915050565b634e487b7160e01b600052602160045260246000fd5b60028110612b5657612b56612b30565b9052565b600081518084526020840193506020830160005b82811015612b955781516001600160a01b0316865260209586019590910190600101612b6e565b5093949350505050565b60038110612b5657612b56612b30565b8051825260006020820151612bcf60208501826001600160a01b03169052565b5060408201516101806040850152612beb610180850182612aea565b905060608301518482036060860152612c048282612aea565b9150506080830151608085015260a0830151612c2360a0860182612b46565b5060c083015184820360c0860152612c3b8282612aea565b91505060e0830151612c5160e086018215159052565b50610100830151848203610100860152612c6b8282612b5a565b915050610120830151610120850152610140830151610140850152610160830151612c9a610160860182612b9f565b509392505050565b6000602082016020835280845180835260408501915060408160051b86010192506020860160005b82811015612cfb57603f19878603018452612ce6858351612baf565b94506020938401939190910190600101612cca565b50929695505050505050565b602080825282518282018190526000918401906040840190835b81811015612d3f578351835260209384019390920191600101612d21565b509095945050505050565b634e487b7160e01b600052604160045260246000fd5b600082601f830112612d7157600080fd5b813567ffffffffffffffff811115612d8b57612d8b612d4a565b604051601f8201601f19908116603f0116810167ffffffffffffffff81118282101715612dba57612dba612d4a565b604052818152838201602001851015612dd257600080fd5b816020850160208301376000918101602001919091529392505050565b600060208284031215612e0157600080fd5b813567ffffffffffffffff811115612e1857600080fd5b612e2484828501612d60565b949350505050565b600080600080600060a08688031215612e4457600080fd5b853567ffffffffffffffff811115612e5b57600080fd5b612e6788828901612d60565b955050602086013567ffffffffffffffff811115612e8457600080fd5b612e9088828901612d60565b94505060408601359250612ea660608701612ac0565b9150608086013567ffffffffffffffff811115612ec257600080fd5b612ece88828901612d60565b9150509295509295909350565b60008060408385031215612eee57600080fd5b612ef783612a69565b946020939093013593505050565b60008060408385031215612f1857600080fd5b82359150612f2860208401612a69565b90509250929050565b8b81526001600160a01b038b16602082015261016060408201819052600090612f5c9083018c612aea565b8281036060840152612f6e818c612aea565b9050896080840152612f8360a084018a612b46565b82810360c0840152612f958189612aea565b91505085151560e08301528461010083015283610120830152612fbc610140830184612b9f565b9c9b505050505050505050505050565b602081526000612aa06020830184612baf565b602080825282518282018190526000918401906040840190835b81811015612d3f5783516001600160a01b0316835260209384019390920191600101612ff9565b60208082526013908201527213185b9908191bd95cc81b9bdd08195e1a5cdd606a1b604082015260600190565b634e487b7160e01b600052603260045260246000fd5b634e487b7160e01b600052601160045260246000fd5b60006001820161308b5761308b613063565b5060010190565b600181811c908216806130a657607f821691505b6020821081036103e857634e487b7160e01b600052602260045260246000fd5b60008083546130d481613092565b6001821680156130eb576001811461310057613130565b60ff1983168652811515820286019350613130565b86600052602060002060005b838110156131285781548882015260019091019060200161310c565b505081860193505b509195945050505050565b60006020828403121561314d57600080fd5b81518015158114612aa057600080fd5b601f8211156131a757806000526020600020601f840160051c810160208510156131845750805b601f840160051c820191505b818110156131a45760008155600101613190565b50505b505050565b815167ffffffffffffffff8111156131c6576131c6612d4a565b6131da816131d48454613092565b8461315d565b6020601f82116001811461320e57600083156131f65750848201515b600019600385901b1c1916600184901b1784556131a4565b600084815260208120601f198516915b8281101561323e578785015182556020948501946001909201910161321e565b508482101561325c5786840151600019600387901b60f8161c191681555b50505050600190811b01905550565b8981526001600160a01b0389166020820152610120604082018190526000906132969083018a612aea565b82810360608401526132a8818a612aea565b90508760808401526132bd60a0840188612b46565b82810360c08401526132cf8187612aea565b94151560e084015250506101000152979650505050505050565b6000816132f8576132f8613063565b506000190190565b6001600160a01b03841681526020810183905260608101612e246040830184612b9f565b602081526000612aa06020830184612aea565b81810381811115611af757611af7613063565b634e487b7160e01b600052603160045260246000fdfea264697066735822122037ca7405f68f71feddb96160c01995357d8b6e43b09dff65db577c031748357664736f6c634300081c0033",
  "linkReferences": {},
  "deployedLinkReferences": {}
}