{
  "_format": "hh-sol-artifact-1",
  "contractName": "LandRegistry",
  "sourceName": "contracts/LandRegistry.sol",
  "abi": [
    {
      "inputs": [
        {
          "internalType": "address",
          "name": "_kycAddress",
          "type": "address"
        }
      ],
      "stateMutability": "nonpayable",
      "type": "constructor"
    },
    {
      "anonymous": false,
      "inputs": [
        {
          "indexed": false,
          "internalType": "uint256",
          "name": "landId",
          "type": "uint256"
        },
        {
          "indexed": false,
          "internalType": "string",
          "name": "cOfONo",
          "type": "string"
        },
        {
          "indexed": false,
          "internalType": "address",
          "name": "currentOwner",
          "type": "address"
        },
        {
          "indexed": false,
          "internalType": "string",
          "name": "state",
          "type": "string"
        },
        {
          "indexed": false,
          "internalType": "string",
          "name": "lga",
          "type": "string"
        },
        {
          "indexed": false,
          "internalType": "uint256",
          "name": "area",
          "type": "uint256"
        },
        {
          "indexed": false,
          "internalType": "enum LandRegistry.LandUse",
          "name": "landuse",
          "type": "uint8"
        },
        {
          "indexed": false,
          "internalType": "string",
          "name": "landIpfs",
          "type": "string"
        },
        {
          "indexed": false,
          "internalType": "bool",
          "name": "isVerified",
          "type": "bool"
        },
        {
          "indexed": false,
          "internalType": "uint256",
          "name": "registrationDate",
          "type": "uint256"
        }
      ],
      "name": "LandCreated",
      "type": "event"
    },
    {
      "anonymous": false,
      "inputs": [
        {
          "indexed": false,
          "internalType": "address",
          "name": "currentOwner",
          "type": "address"
        },
        {
          "indexed": false,
          "internalType": "uint256",
          "name": "transferDate",
          "type": "uint256"
        },
        {
          "indexed": false,
          "internalType": "enum LandRegistry.TransferStatus",
          "name": "transferStatus",
          "type": "uint8"
        }
      ],
      "name": "LandUpdate",
      "type": "event"
    },
    {
      "anonymous": false,
      "inputs": [
        {
          "indexed": true,
          "internalType": "uint256",
          "name": "_landId",
          "type": "uint256"
        }
      ],
      "name": "verifiedLand",
      "type": "event"
    },
    {
      "inputs": [
        {
          "internalType": "string",
          "name": "",
          "type": "string"
        }
      ],
      "name": "cOfOExists",
      "outputs": [
        {
          "internalType": "bool",
          "name": "",
          "type": "bool"
        }
      ],
      "stateMutability": "view",
      "type": "function"
    },
    {
      "inputs": [
        {
          "internalType": "address",
          "name": "owner",
          "type": "address"
        },
        {
          "internalType": "uint256",
          "name": "landId",
          "type": "uint256"
        }
      ],
      "name": "doesOwnerHaveLand",
      "outputs": [
        {
          "internalType": "bool",
          "name": "",
          "type": "bool"
        }
      ],
      "stateMutability": "view",
      "type": "function"
    },
    {
      "inputs": [],
      "name": "getAllLand",
      "outputs": [
        {
          "components": [
            {
              "internalType": "uint256",
              "name": "landId",
              "type": "uint256"
            },
            {
              "internalType": "string",
              "name": "cOfONo",
              "type": "string"
            },
            {
              "internalType": "address",
              "name": "currentOwner",
              "type": "address"
            },
            {
              "internalType": "string",
              "name": "state",
              "type": "string"
            },
            {
              "internalType": "string",
              "name": "lga",
              "type": "string"
            },
            {
              "internalType": "uint256",
              "name": "area",
              "type": "uint256"
            },
            {
              "internalType": "enum LandRegistry.LandUse",
              "name": "landUse",
              "type": "uint8"
            },
            {
              "internalType": "string",
              "name": "landIpfs",
              "type": "string"
            },
            {
              "internalType": "bool",
              "name": "isVerified",
              "type": "bool"
            },
            {
              "internalType": "address[]",
              "name": "ownershipHistory",
              "type": "address[]"
            },
            {
              "internalType": "uint256",
              "name": "registrationDate",
              "type": "uint256"
            },
            {
              "internalType": "uint256",
              "name": "lastTransferDate",
              "type": "uint256"
            },
            {
              "internalType": "enum LandRegistry.TransferStatus",
              "name": "transferStatus",
              "type": "uint8"
            }
          ],
          "internalType": "struct LandRegistry.LandData[]",
          "name": "",
          "type": "tuple[]"
        }
      ],
      "stateMutability": "view",
      "type": "function"
    },
    {
      "inputs": [
        {
          "internalType": "uint256",
          "name": "_landId",
          "type": "uint256"
        }
      ],
      "name": "getLand",
      "outputs": [
        {
          "components": [
            {
              "internalType": "uint256",
              "name": "landId",
              "type": "uint256"
            },
            {
              "internalType": "string",
              "name": "cOfONo",
              "type": "string"
            },
            {
              "internalType": "address",
              "name": "currentOwner",
              "type": "address"
            },
            {
              "internalType": "string",
              "name": "state",
              "type": "string"
            },
            {
              "internalType": "string",
              "name": "lga",
              "type": "string"
            },
            {
              "internalType": "uint256",
              "name": "area",
              "type": "uint256"
            },
            {
              "internalType": "enum LandRegistry.LandUse",
              "name": "landUse",
              "type": "uint8"
            },
            {
              "internalType": "string",
              "name": "landIpfs",
              "type": "string"
            },
            {
              "internalType": "bool",
              "name": "isVerified",
              "type": "bool"
            },
            {
              "internalType": "address[]",
              "name": "ownershipHistory",
              "type": "address[]"
            },
            {
              "internalType": "uint256",
              "name": "registrationDate",
              "type": "uint256"
            },
            {
              "internalType": "uint256",
              "name": "lastTransferDate",
              "type": "uint256"
            },
            {
              "internalType": "enum LandRegistry.TransferStatus",
              "name": "transferStatus",
              "type": "uint8"
            }
          ],
          "internalType": "struct LandRegistry.LandData",
          "name": "",
          "type": "tuple"
        }
      ],
      "stateMutability": "view",
      "type": "function"
    },
    {
      "inputs": [
        {
          "internalType": "address",
          "name": "owner",
          "type": "address"
        }
      ],
      "name": "getLandCount",
      "outputs": [
        {
          "internalType": "uint256",
          "name": "",
          "type": "uint256"
        }
      ],
      "stateMutability": "view",
      "type": "function"
    },
    {
      "inputs": [
        {
          "internalType": "string",
          "name": "_state",
          "type": "string"
        }
      ],
      "name": "getLandsByState",
      "outputs": [
        {
          "components": [
            {
              "internalType": "uint256",
              "name": "landId",
              "type": "uint256"
            },
            {
              "internalType": "string",
              "name": "cOfONo",
              "type": "string"
            },
            {
              "internalType": "address",
              "name": "currentOwner",
              "type": "address"
            },
            {
              "internalType": "string",
              "name": "state",
              "type": "string"
            },
            {
              "internalType": "string",
              "name": "lga",
              "type": "string"
            },
            {
              "internalType": "uint256",
              "name": "area",
              "type": "uint256"
            },
            {
              "internalType": "enum LandRegistry.LandUse",
              "name": "landUse",
              "type": "uint8"
            },
            {
              "internalType": "string",
              "name": "landIpfs",
              "type": "string"
            },
            {
              "internalType": "bool",
              "name": "isVerified",
              "type": "bool"
            },
            {
              "internalType": "address[]",
              "name": "ownershipHistory",
              "type": "address[]"
            },
            {
              "internalType": "uint256",
              "name": "registrationDate",
              "type": "uint256"
            },
            {
              "internalType": "uint256",
              "name": "lastTransferDate",
              "type": "uint256"
            },
            {
              "internalType": "enum LandRegistry.TransferStatus",
              "name": "transferStatus",
              "type": "uint8"
            }
          ],
          "internalType": "struct LandRegistry.LandData[]",
          "name": "",
          "type": "tuple[]"
        }
      ],
      "stateMutability": "view",
      "type": "function"
    },
    {
      "inputs": [
        {
          "internalType": "enum LandRegistry.LandUse",
          "name": "_landUse",
          "type": "uint8"
        }
      ],
      "name": "getLandsByUse",
      "outputs": [
        {
          "components": [
            {
              "internalType": "uint256",
              "name": "landId",
              "type": "uint256"
            },
            {
              "internalType": "string",
              "name": "cOfONo",
              "type": "string"
            },
            {
              "internalType": "address",
              "name": "currentOwner",
              "type": "address"
            },
            {
              "internalType": "string",
              "name": "state",
              "type": "string"
            },
            {
              "internalType": "string",
              "name": "lga",
              "type": "string"
            },
            {
              "internalType": "uint256",
              "name": "area",
              "type": "uint256"
            },
            {
              "internalType": "enum LandRegistry.LandUse",
              "name": "landUse",
              "type": "uint8"
            },
            {
              "internalType": "string",
              "name": "landIpfs",
              "type": "string"
            },
            {
              "internalType": "bool",
              "name": "isVerified",
              "type": "bool"
            },
            {
              "internalType": "address[]",
              "name": "ownershipHistory",
              "type": "address[]"
            },
            {
              "internalType": "uint256",
              "name": "registrationDate",
              "type": "uint256"
            },
            {
              "internalType": "uint256",
              "name": "lastTransferDate",
              "type": "uint256"
            },
            {
              "internalType": "enum LandRegistry.TransferStatus",
              "name": "transferStatus",
              "type": "uint8"
            }
          ],
          "internalType": "struct LandRegistry.LandData[]",
          "name": "",
          "type": "tuple[]"
        }
      ],
      "stateMutability": "view",
      "type": "function"
    },
    {
      "inputs": [
        {
          "internalType": "address",
          "name": "owner",
          "type": "address"
        }
      ],
      "name": "getOwnedLands",
      "outputs": [
        {
          "internalType": "uint256[]",
          "name": "",
          "type": "uint256[]"
        }
      ],
      "stateMutability": "view",
      "type": "function"
    },
    {
      "inputs": [
        {
          "internalType": "uint256",
          "name": "_landId",
          "type": "uint256"
        }
      ],
      "name": "getOwnershipHistory",
      "outputs": [
        {
          "internalType": "address[]",
          "name": "",
          "type": "address[]"
        }
      ],
      "stateMutability": "view",
      "type": "function"
    },
    {
      "inputs": [],
      "name": "getTotalLandCount",
      "outputs": [
        {
          "internalType": "uint256",
          "name": "",
          "type": "uint256"
        }
      ],
      "stateMutability": "view",
      "type": "function"
    },
    {
      "inputs": [],
      "name": "getVerifiedLands",
      "outputs": [
        {
          "components": [
            {
              "internalType": "uint256",
              "name": "landId",
              "type": "uint256"
            },
            {
              "internalType": "string",
              "name": "cOfONo",
              "type": "string"
            },
            {
              "internalType": "address",
              "name": "currentOwner",
              "type": "address"
            },
            {
              "internalType": "string",
              "name": "state",
              "type": "string"
            },
            {
              "internalType": "string",
              "name": "lga",
              "type": "string"
            },
            {
              "internalType": "uint256",
              "name": "area",
              "type": "uint256"
            },
            {
              "internalType": "enum LandRegistry.LandUse",
              "name": "landUse",
              "type": "uint8"
            },
            {
              "internalType": "string",
              "name": "landIpfs",
              "type": "string"
            },
            {
              "internalType": "bool",
              "name": "isVerified",
              "type": "bool"
            },
            {
              "internalType": "address[]",
              "name": "ownershipHistory",
              "type": "address[]"
            },
            {
              "internalType": "uint256",
              "name": "registrationDate",
              "type": "uint256"
            },
            {
              "internalType": "uint256",
              "name": "lastTransferDate",
              "type": "uint256"
            },
            {
              "internalType": "enum LandRegistry.TransferStatus",
              "name": "transferStatus",
              "type": "uint8"
            }
          ],
          "internalType": "struct LandRegistry.LandData[]",
          "name": "",
          "type": "tuple[]"
        }
      ],
      "stateMutability": "view",
      "type": "function"
    },
    {
      "inputs": [
        {
          "internalType": "address",
          "name": "",
          "type": "address"
        }
      ],
      "name": "isLandOwner",
      "outputs": [
        {
          "internalType": "bool",
          "name": "",
          "type": "bool"
        }
      ],
      "stateMutability": "view",
      "type": "function"
    },
    {
      "inputs": [
        {
          "internalType": "uint256",
          "name": "_landId",
          "type": "uint256"
        }
      ],
      "name": "isVerified",
      "outputs": [
        {
          "internalType": "bool",
          "name": "",
          "type": "bool"
        }
      ],
      "stateMutability": "view",
      "type": "function"
    },
    {
      "inputs": [],
      "name": "kyc",
      "outputs": [
        {
          "internalType": "contract IKYC",
          "name": "",
          "type": "address"
        }
      ],
      "stateMutability": "view",
      "type": "function"
    },
    {
      "inputs": [
        {
          "internalType": "address",
          "name": "",
          "type": "address"
        }
      ],
      "name": "landCount",
      "outputs": [
        {
          "internalType": "uint256",
          "name": "",
          "type": "uint256"
        }
      ],
      "stateMutability": "view",
      "type": "function"
    },
    {
      "inputs": [
        {
          "internalType": "uint256",
          "name": "",
          "type": "uint256"
        }
      ],
      "name": "landList",
      "outputs": [
        {
          "internalType": "uint256",
          "name": "landId",
          "type": "uint256"
        },
        {
          "internalType": "string",
          "name": "cOfONo",
          "type": "string"
        },
        {
          "internalType": "address",
          "name": "currentOwner",
          "type": "address"
        },
        {
          "internalType": "string",
          "name": "state",
          "type": "string"
        },
        {
          "internalType": "string",
          "name": "lga",
          "type": "string"
        },
        {
          "internalType": "uint256",
          "name": "area",
          "type": "uint256"
        },
        {
          "internalType": "enum LandRegistry.LandUse",
          "name": "landUse",
          "type": "uint8"
        },
        {
          "internalType": "string",
          "name": "landIpfs",
          "type": "string"
        },
        {
          "internalType": "bool",
          "name": "isVerified",
          "type": "bool"
        },
        {
          "internalType": "uint256",
          "name": "registrationDate",
          "type": "uint256"
        },
        {
          "internalType": "uint256",
          "name": "lastTransferDate",
          "type": "uint256"
        },
        {
          "internalType": "enum LandRegistry.TransferStatus",
          "name": "transferStatus",
          "type": "uint8"
        }
      ],
      "stateMutability": "view",
      "type": "function"
    },
    {
      "inputs": [
        {
          "internalType": "address",
          "name": "",
          "type": "address"
        }
      ],
      "name": "landOwners",
      "outputs": [
        {
          "internalType": "address",
          "name": "landOwnerAddress",
          "type": "address"
        },
        {
          "internalType": "bool",
          "name": "isActive",
          "type": "bool"
        }
      ],
      "stateMutability": "view",
      "type": "function"
    },
    {
      "inputs": [
        {
          "internalType": "address",
          "name": "",
          "type": "address"
        },
        {
          "internalType": "uint256",
          "name": "",
          "type": "uint256"
        }
      ],
      "name": "ownsLand",
      "outputs": [
        {
          "internalType": "bool",
          "name": "",
          "type": "bool"
        }
      ],
      "stateMutability": "view",
      "type": "function"
    },
    {
      "inputs": [
        {
          "internalType": "string",
          "name": "_cOfONo",
          "type": "string"
        },
        {
          "internalType": "string",
          "name": "_state",
          "type": "string"
        },
        {
          "internalType": "string",
          "name": "_lga",
          "type": "string"
        },
        {
          "internalType": "uint256",
          "name": "_area",
          "type": "uint256"
        },
        {
          "internalType": "enum LandRegistry.LandUse",
          "name": "_landUse",
          "type": "uint8"
        },
        {
          "internalType": "string",
          "name": "_ipfs",
          "type": "string"
        }
      ],
      "name": "registerLand",
      "outputs": [],
      "stateMutability": "nonpayable",
      "type": "function"
    },
    {
      "inputs": [
        {
          "internalType": "uint256",
          "name": "_landId",
          "type": "uint256"
        },
        {
          "internalType": "address",
          "name": "_newOwner",
          "type": "address"
        }
      ],
      "name": "transferLand",
      "outputs": [],
      "stateMutability": "nonpayable",
      "type": "function"
    },
    {
      "inputs": [
        {
          "internalType": "uint256",
          "name": "_landId",
          "type": "uint256"
        }
      ],
      "name": "verifyLand",
      "outputs": [],
      "stateMutability": "nonpayable",
      "type": "function"
    }
  ],
  "bytecode": "0x6080604052348015600f57600080fd5b506040516138c63803806138c6833981016040819052602c916050565b600080546001600160a01b0319166001600160a01b0392909216919091179055607e565b600060208284031215606157600080fd5b81516001600160a01b0381168114607757600080fd5b9392505050565b6138398061008d6000396000f3fe608060405234801561001057600080fd5b50600436106101375760003560e01c806387757e34116100b8578063c798ff7d1161007c578063c798ff7d14610338578063d5e421511461034d578063f02dd53f14610378578063f1dbaccb14610398578063f9c43bdf146103b8578063f9f2aa4b146103cb57600080fd5b806387757e34146102a457806390d6b45f146102ac57806397f88f25146102d7578063c328ad7a146102f7578063c66753bc1461030a57600080fd5b80634dc3c326116100ff5780634dc3c326146101f1578063519ea705146102145780635c8f66291461023457806363ff41df1461023c57806367b571421461024f57600080fd5b8063269550bd1461013c57806332b4813e1461017f57806337b6d96b146101b65780634c1174b0146101c95780634c6fb8c7146101e9575b600080fd5b61016a61014a366004612f15565b805160208183018101805160028252928201919093012091525460ff1681565b60405190151581526020015b60405180910390f35b6101a861018d366004612f6e565b6001600160a01b031660009081526009602052604090205490565b604051908152602001610176565b61016a6101c4366004612f90565b6103de565b6101dc6101d7366004612fb8565b610428565b60405161017691906131b1565b6101dc61091e565b61016a6101ff366004612f6e565b60046020526000908152604090205460ff1681565b610227610222366004612f6e565b610dcd565b6040516101769190613216565b6001546101a8565b6101dc61024a366004612f15565b610e39565b61028561025d366004612f6e565b600360205260009081526040902080546002909101546001600160a01b039091169060ff1682565b604080516001600160a01b039093168352901515602083015201610176565b6101dc61130d565b6000546102bf906001600160a01b031681565b6040516001600160a01b039091168152602001610176565b6101a86102e5366004612f6e565b60096020526000908152604090205481565b61016a610305366004613259565b6116c8565b61016a610318366004613259565b600860209081526000928352604080842090915290825290205460ff1681565b61034b610346366004613283565b6116f6565b005b61036061035b366004612f90565b611cad565b6040516101769c9b9a999897969594939291906132af565b61038b610386366004612f90565b611f57565b6040516101769190613365565b6103ab6103a6366004612f90565b612310565b6040516101769190613378565b61034b6103c6366004612f90565b6123bb565b61034b6103d93660046133b9565b6124b8565b6001546000908290811061040d5760405162461bcd60e51b815260040161040490613492565b60405180910390fd5b60008381526005602052604090205460ff1691505b50919050565b60606000805b6001548110156104a05783600181111561044a5761044a613023565b6001828154811061045d5761045d6134bf565b600091825260209091206006600d90920201015460ff16600181111561048557610485613023565b036104985781610494816134eb565b9250505b60010161042e565b5060008167ffffffffffffffff8111156104bc576104bc612e70565b6040519080825280602002602001820160405280156104f557816020015b6104e2612ce7565b8152602001906001900390816104da5790505b5090506000805b6001548110156109145785600181111561051857610518613023565b6001828154811061052b5761052b6134bf565b600091825260209091206006600d90920201015460ff16600181111561055357610553613023565b0361090c576001818154811061056b5761056b6134bf565b90600052602060002090600d0201604051806101a00160405290816000820154815260200160018201805461059f90613504565b80601f01602080910402602001604051908101604052809291908181526020018280546105cb90613504565b80156106185780601f106105ed57610100808354040283529160200191610618565b820191906000526020600020905b8154815290600101906020018083116105fb57829003601f168201915b505050918352505060028201546001600160a01b0316602082015260038201805460409092019161064890613504565b80601f016020809104026020016040519081016040528092919081815260200182805461067490613504565b80156106c15780601f10610696576101008083540402835291602001916106c1565b820191906000526020600020905b8154815290600101906020018083116106a457829003601f168201915b505050505081526020016004820180546106da90613504565b80601f016020809104026020016040519081016040528092919081815260200182805461070690613504565b80156107535780601f1061072857610100808354040283529160200191610753565b820191906000526020600020905b81548152906001019060200180831161073657829003601f168201915b505050918352505060058201546020820152600682015460409091019060ff16600181111561078457610784613023565b600181111561079557610795613023565b81526020016007820180546107a990613504565b80601f01602080910402602001604051908101604052809291908181526020018280546107d590613504565b80156108225780601f106107f757610100808354040283529160200191610822565b820191906000526020600020905b81548152906001019060200180831161080557829003601f168201915b5050509183525050600882015460ff161515602080830191909152600983018054604080518285028101850182528281529401939283018282801561089057602002820191906000526020600020905b81546001600160a01b03168152600190910190602001808311610872575b5050509183525050600a8201546020820152600b8201546040820152600c82015460609091019060ff1660028111156108cb576108cb613023565b60028111156108dc576108dc613023565b815250508383815181106108f2576108f26134bf565b60200260200101819052508180610908906134eb565b9250505b6001016104fc565b5090949350505050565b60606000805b6001548110156109735760018181548110610941576109416134bf565b600091825260209091206008600d90920201015460ff161561096b5781610967816134eb565b9250505b600101610924565b5060008167ffffffffffffffff81111561098f5761098f612e70565b6040519080825280602002602001820160405280156109c857816020015b6109b5612ce7565b8152602001906001900390816109ad5790505b5090506000805b600154811015610dc457600181815481106109ec576109ec6134bf565b600091825260209091206008600d90920201015460ff1615610dbc5760018181548110610a1b57610a1b6134bf565b90600052602060002090600d0201604051806101a001604052908160008201548152602001600182018054610a4f90613504565b80601f0160208091040260200160405190810160405280929190818152602001828054610a7b90613504565b8015610ac85780601f10610a9d57610100808354040283529160200191610ac8565b820191906000526020600020905b815481529060010190602001808311610aab57829003601f168201915b505050918352505060028201546001600160a01b03166020820152600382018054604090920191610af890613504565b80601f0160208091040260200160405190810160405280929190818152602001828054610b2490613504565b8015610b715780601f10610b4657610100808354040283529160200191610b71565b820191906000526020600020905b815481529060010190602001808311610b5457829003601f168201915b50505050508152602001600482018054610b8a90613504565b80601f0160208091040260200160405190810160405280929190818152602001828054610bb690613504565b8015610c035780601f10610bd857610100808354040283529160200191610c03565b820191906000526020600020905b815481529060010190602001808311610be657829003601f168201915b505050918352505060058201546020820152600682015460409091019060ff166001811115610c3457610c34613023565b6001811115610c4557610c45613023565b8152602001600782018054610c5990613504565b80601f0160208091040260200160405190810160405280929190818152602001828054610c8590613504565b8015610cd25780601f10610ca757610100808354040283529160200191610cd2565b820191906000526020600020905b815481529060010190602001808311610cb557829003601f168201915b5050509183525050600882015460ff1615156020808301919091526009830180546040805182850281018501825282815294019392830182828015610d4057602002820191906000526020600020905b81546001600160a01b03168152600190910190602001808311610d22575b5050509183525050600a8201546020820152600b8201546040820152600c82015460609091019060ff166002811115610d7b57610d7b613023565b6002811115610d8c57610d8c613023565b81525050838381518110610da257610da26134bf565b60200260200101819052508180610db8906134eb565b9250505b6001016109cf565b50909392505050565b6001600160a01b038116600090815260076020908152604091829020805483518184028101840190945280845260609392830182828015610e2d57602002820191906000526020600020905b815481526020019060010190808311610e19575b50505050509050919050565b60606000805b600154811015610ea557838051906020012060018281548110610e6457610e646134bf565b90600052602060002090600d0201600301604051610e829190613538565b604051809103902003610e9d5781610e99816134eb565b9250505b600101610e3f565b5060008167ffffffffffffffff811115610ec157610ec1612e70565b604051908082528060200260200182016040528015610efa57816020015b610ee7612ce7565b815260200190600190039081610edf5790505b5090506000805b60015481101561091457858051906020012060018281548110610f2657610f266134bf565b90600052602060002090600d0201600301604051610f449190613538565b6040518091039020036113055760018181548110610f6457610f646134bf565b90600052602060002090600d0201604051806101a001604052908160008201548152602001600182018054610f9890613504565b80601f0160208091040260200160405190810160405280929190818152602001828054610fc490613504565b80156110115780601f10610fe657610100808354040283529160200191611011565b820191906000526020600020905b815481529060010190602001808311610ff457829003601f168201915b505050918352505060028201546001600160a01b0316602082015260038201805460409092019161104190613504565b80601f016020809104026020016040519081016040528092919081815260200182805461106d90613504565b80156110ba5780601f1061108f576101008083540402835291602001916110ba565b820191906000526020600020905b81548152906001019060200180831161109d57829003601f168201915b505050505081526020016004820180546110d390613504565b80601f01602080910402602001604051908101604052809291908181526020018280546110ff90613504565b801561114c5780601f106111215761010080835404028352916020019161114c565b820191906000526020600020905b81548152906001019060200180831161112f57829003601f168201915b505050918352505060058201546020820152600682015460409091019060ff16600181111561117d5761117d613023565b600181111561118e5761118e613023565b81526020016007820180546111a290613504565b80601f01602080910402602001604051908101604052809291908181526020018280546111ce90613504565b801561121b5780601f106111f05761010080835404028352916020019161121b565b820191906000526020600020905b8154815290600101906020018083116111fe57829003601f168201915b5050509183525050600882015460ff161515602080830191909152600983018054604080518285028101850182528281529401939283018282801561128957602002820191906000526020600020905b81546001600160a01b0316815260019091019060200180831161126b575b5050509183525050600a8201546020820152600b8201546040820152600c82015460609091019060ff1660028111156112c4576112c4613023565b60028111156112d5576112d5613023565b815250508383815181106112eb576112eb6134bf565b60200260200101819052508180611301906134eb565b9250505b600101610f01565b60606001805480602002602001604051908101604052809291908181526020016000905b828210156116bf57838290600052602060002090600d0201604051806101a00160405290816000820154815260200160018201805461136f90613504565b80601f016020809104026020016040519081016040528092919081815260200182805461139b90613504565b80156113e85780601f106113bd576101008083540402835291602001916113e8565b820191906000526020600020905b8154815290600101906020018083116113cb57829003601f168201915b505050918352505060028201546001600160a01b0316602082015260038201805460409092019161141890613504565b80601f016020809104026020016040519081016040528092919081815260200182805461144490613504565b80156114915780601f1061146657610100808354040283529160200191611491565b820191906000526020600020905b81548152906001019060200180831161147457829003601f168201915b505050505081526020016004820180546114aa90613504565b80601f01602080910402602001604051908101604052809291908181526020018280546114d690613504565b80156115235780601f106114f857610100808354040283529160200191611523565b820191906000526020600020905b81548152906001019060200180831161150657829003601f168201915b505050918352505060058201546020820152600682015460409091019060ff16600181111561155457611554613023565b600181111561156557611565613023565b815260200160078201805461157990613504565b80601f01602080910402602001604051908101604052809291908181526020018280546115a590613504565b80156115f25780601f106115c7576101008083540402835291602001916115f2565b820191906000526020600020905b8154815290600101906020018083116115d557829003601f168201915b5050509183525050600882015460ff161515602080830191909152600983018054604080518285028101850182528281529401939283018282801561166057602002820191906000526020600020905b81546001600160a01b03168152600190910190602001808311611642575b5050509183525050600a8201546020820152600b8201546040820152600c82015460609091019060ff16600281111561169b5761169b613023565b60028111156116ac576116ac613023565b8152505081526020019060010190611331565b50505050905090565b6001600160a01b038216600090815260086020908152604080832084845290915290205460ff165b92915050565b60005460405163056720bf60e51b81523360048201526001600160a01b039091169063ace417e090602401602060405180830381865afa15801561173e573d6000803e3d6000fd5b505050506040513d601f19601f8201168201806040525081019061176291906135ad565b6117a85760405162461bcd60e51b815260206004820152601760248201527612d650c815995c9a599a58d85d1a5bdb881b9959591959604a1b6044820152606401610404565b600154829081106117cb5760405162461bcd60e51b815260040161040490613492565b6000600184815481106117e0576117e06134bf565b600091825260209091206002600d90920201908101549091506001600160a01b031633146118505760405162461bcd60e51b815260206004820181905260248201527f4f6e6c7920746865206f776e65722063616e207472616e73666572206c616e646044820152606401610404565b6001600160a01b03831661189a5760405162461bcd60e51b815260206004820152601160248201527024b73b30b634b2103732bb9037bbb732b960791b6044820152606401610404565b60005460405163056720bf60e51b81526001600160a01b0385811660048301529091169063ace417e090602401602060405180830381865afa1580156118e4573d6000803e3d6000fd5b505050506040513d601f19601f8201168201806040525081019061190891906135ad565b6119545760405162461bcd60e51b815260206004820152601e60248201527f4e6577206f776e6572206d757374206265204b594320766572696669656400006044820152606401610404565b60028101546001600160a01b031660008181526008602090815260408083208884528252808320805460ff1916905583835260099091528120805491611999836135cf565b91905055506119a88186612bb2565b600282810180546001600160a01b0387166001600160a01b0319918216811790925542600b86015560098086018054600181810183556000928352602080842090920180549095168617909455600c8801805460ff1990811690971790558482526008815260408083208c845282528083208054909716909417909555928352909252908120805491611a3a836134eb565b90915550506001600160a01b038416600081815260076020908152604080832080546001810182559084528284200189905592825260049052205460ff16611b8357604080516060810182526001600160a01b0386168082526000908152600760209081529083902080548451818402810184019095528085529293828501939092830182828015611aeb57602002820191906000526020600020905b815481526020019060010190808311611ad7575b5050509183525050600160209182018190526001600160a01b0387811660009081526003845260409020845181546001600160a01b03191692169190911781558383015180519193611b4293850192910190612d7b565b506040918201516002909101805491151560ff199283161790556001600160a01b038616600090815260046020529190912080549091166001179055611be0565b6001600160a01b038416600090815260076020908152604080832060039092529091208154611bb89260019092019190612dc6565b506001600160a01b0384166000908152600360205260409020600201805460ff191660011790555b6001600160a01b0381166000908152600960205260408120549003611c27576001600160a01b0381166000908152600360205260409020600201805460ff19169055611c5e565b6001600160a01b038116600090815260076020908152604080832060039092529091208154611c5c9260019092019190612dc6565b505b600b820154600c8301546040517f8bee0b9a13e377a566d828cec2ed39a75c71f88d4127d913207563fabdc593e892611c9e92889260ff909116906135e6565b60405180910390a15050505050565b60018181548110611cbd57600080fd5b60009182526020909120600d90910201805460018201805491935090611ce290613504565b80601f0160208091040260200160405190810160405280929190818152602001828054611d0e90613504565b8015611d5b5780601f10611d3057610100808354040283529160200191611d5b565b820191906000526020600020905b815481529060010190602001808311611d3e57829003601f168201915b505050600284015460038501805494956001600160a01b03909216949193509150611d8590613504565b80601f0160208091040260200160405190810160405280929190818152602001828054611db190613504565b8015611dfe5780601f10611dd357610100808354040283529160200191611dfe565b820191906000526020600020905b815481529060010190602001808311611de157829003601f168201915b505050505090806004018054611e1390613504565b80601f0160208091040260200160405190810160405280929190818152602001828054611e3f90613504565b8015611e8c5780601f10611e6157610100808354040283529160200191611e8c565b820191906000526020600020905b815481529060010190602001808311611e6f57829003601f168201915b50505050600583015460068401546007850180549495929460ff909216935090611eb590613504565b80601f0160208091040260200160405190810160405280929190818152602001828054611ee190613504565b8015611f2e5780601f10611f0357610100808354040283529160200191611f2e565b820191906000526020600020905b815481529060010190602001808311611f1157829003601f168201915b5050506008840154600a850154600b860154600c90960154949560ff928316959194509250168c565b611f5f612ce7565b60015482908110611f825760405162461bcd60e51b815260040161040490613492565b60018381548110611f9557611f956134bf565b90600052602060002090600d0201604051806101a001604052908160008201548152602001600182018054611fc990613504565b80601f0160208091040260200160405190810160405280929190818152602001828054611ff590613504565b80156120425780601f1061201757610100808354040283529160200191612042565b820191906000526020600020905b81548152906001019060200180831161202557829003601f168201915b505050918352505060028201546001600160a01b0316602082015260038201805460409092019161207290613504565b80601f016020809104026020016040519081016040528092919081815260200182805461209e90613504565b80156120eb5780601f106120c0576101008083540402835291602001916120eb565b820191906000526020600020905b8154815290600101906020018083116120ce57829003601f168201915b5050505050815260200160048201805461210490613504565b80601f016020809104026020016040519081016040528092919081815260200182805461213090613504565b801561217d5780601f106121525761010080835404028352916020019161217d565b820191906000526020600020905b81548152906001019060200180831161216057829003601f168201915b505050918352505060058201546020820152600682015460409091019060ff1660018111156121ae576121ae613023565b60018111156121bf576121bf613023565b81526020016007820180546121d390613504565b80601f01602080910402602001604051908101604052809291908181526020018280546121ff90613504565b801561224c5780601f106122215761010080835404028352916020019161224c565b820191906000526020600020905b81548152906001019060200180831161222f57829003601f168201915b5050509183525050600882015460ff16151560208083019190915260098301805460408051828502810185018252828152940193928301828280156122ba57602002820191906000526020600020905b81546001600160a01b0316815260019091019060200180831161229c575b5050509183525050600a8201546020820152600b8201546040820152600c82015460609091019060ff1660028111156122f5576122f5613023565b600281111561230657612306613023565b9052509392505050565b600154606090829081106123365760405162461bcd60e51b815260040161040490613492565b60018381548110612349576123496134bf565b90600052602060002090600d02016009018054806020026020016040519081016040528092919081815260200182805480156123ae57602002820191906000526020600020905b81546001600160a01b03168152600190910190602001808311612390575b5050505050915050919050565b600154819081106123de5760405162461bcd60e51b815260040161040490613492565b600082815260056020526040902054829060ff16156124375760405162461bcd60e51b815260206004820152601560248201527413185b9908185b1c9958591e481d995c9a599a5959605a1b6044820152606401610404565b60006001848154811061244c5761244c6134bf565b600091825260208083206008600d90930201918201805460ff1990811660019081179092558885526005909252604080852080549093169091179091555190925085917ff55e0413f8ce4b6b376fe3c40f28944166aaae5f59ba769159dbebfc8c77ac7b91a250505050565b60005460405163056720bf60e51b81523360048201526001600160a01b039091169063ace417e090602401602060405180830381865afa158015612500573d6000803e3d6000fd5b505050506040513d601f19601f8201168201806040525081019061252491906135ad565b61256a5760405162461bcd60e51b815260206004820152601760248201527612d650c815995c9a599a58d85d1a5bdb881b9959591959604a1b6044820152606401610404565b8560028160405161257b919061360a565b9081526040519081900360200190205460ff16156125db5760405162461bcd60e51b815260206004820152601a60248201527f4c616e6420697320616c726561647920726567697374657265640000000000006044820152606401610404565b6126196040518060400160405280601c81526020017f72656769737465724c616e642066756e6374696f6e2063616c6c656400000000815250612c7c565b6001805460408051838152808201909152909160009190602080830190803683370190505090503381600081518110612654576126546134bf565b60200260200101906001600160a01b031690816001600160a01b0316815250506000604051806101a001604052808481526020018b8152602001336001600160a01b031681526020018a81526020018981526020018881526020018760018111156126c1576126c1613023565b8152602001868152602001600015158152602001838152602001428152602001428152602001600060028111156126fa576126fa613023565b90526001805480820182556000919091528151600d9091027fb10e2d527612073b26eecdfd717e6a320cf44b4afac2b0732d9fcbe2b7fa0cf68101918255602083015192935083927fb10e2d527612073b26eecdfd717e6a320cf44b4afac2b0732d9fcbe2b7fa0cf7909101906127719082613675565b5060408201516002820180546001600160a01b0319166001600160a01b03909216919091179055606082015160038201906127ac9082613675565b50608082015160048201906127c19082613675565b5060a0820151600582015560c082015160068201805460ff1916600183818111156127ee576127ee613023565b021790555060e082015160078201906128079082613675565b5061010082015160088201805460ff1916911515919091179055610120820151805161283d916009840191602090910190612e06565b50610140820151600a820155610160820151600b820155610180820151600c8201805460ff1916600183600281111561287857612878613023565b021790555050506000838152600660209081526040909120825181559082015182919060018201906128aa9082613675565b5060408201516002820180546001600160a01b0319166001600160a01b03909216919091179055606082015160038201906128e59082613675565b50608082015160048201906128fa9082613675565b5060a0820151600582015560c082015160068201805460ff19166001838181111561292757612927613023565b021790555060e082015160078201906129409082613675565b5061010082015160088201805460ff19169115159190911790556101208201518051612976916009840191602090910190612e06565b50610140820151600a820155610160820151600b820155610180820151600c8201805460ff191660018360028111156129b1576129b1613023565b0217905550505060008381526005602052604090819020805460ff19169055516001906002906129e2908d9061360a565b90815260408051918290036020908101909220805493151560ff199485161790553360008181526007845282812080546001818101835591835285832001899055828252600885528382208983528552838220805490961617909455835260099091528120805491612a53836134eb565b90915550503360009081526004602052604090205460ff16612b5c5760408051606081018252338082526000908152600760209081529083902080548451818402810184019095528085529293828501939092830182828015612ad557602002820191906000526020600020905b815481526020019060010190808311612ac1575b5050509183525050600160209182018190523360009081526003835260409020835181546001600160a01b0319166001600160a01b039091161781558383015180519193612b2893850192910190612d7b565b506040918201516002909101805491151560ff19928316179055336000908152600460205291909120805490911660011790555b7fc752621b9d57681d58ccc300674573dffe8c41014586b82e17b81eb2b001d8f5838b338c8c8c8c8c600042604051612b9e9a99989796959493929190613734565b60405180910390a150505050505050505050565b6001600160a01b0382166000908152600760205260408120905b8154811015612c765782828281548110612be857612be86134bf565b906000526020600020015403612c6e5781548290612c08906001906137c7565b81548110612c1857612c186134bf565b9060005260206000200154828281548110612c3557612c356134bf565b906000526020600020018190555081805480612c5357612c536137da565b60019003818190600052602060002001600090559055612c76565b600101612bcc565b50505050565b612cbf81604051602401612c9091906137f0565b60408051601f198184030181529190526020810180516001600160e01b031663104c13eb60e21b179052612cc2565b50565b612cbf8160006a636f6e736f6c652e6c6f679050600080835160208501845afa505050565b604051806101a00160405280600081526020016060815260200160006001600160a01b0316815260200160608152602001606081526020016000815260200160006001811115612d3957612d39613023565b81526020016060815260200160001515815260200160608152602001600081526020016000815260200160006002811115612d7657612d76613023565b905290565b828054828255906000526020600020908101928215612db6579160200282015b82811115612db6578251825591602001919060010190612d9b565b50612dc2929150612e5b565b5090565b828054828255906000526020600020908101928215612db65760005260206000209182015b82811115612db6578254825591600101919060010190612deb565b828054828255906000526020600020908101928215612db6579160200282015b82811115612db657825182546001600160a01b0319166001600160a01b03909116178255602090920191600190910190612e26565b5b80821115612dc25760008155600101612e5c565b634e487b7160e01b600052604160045260246000fd5b600082601f830112612e9757600080fd5b813567ffffffffffffffff811115612eb157612eb1612e70565b604051601f8201601f19908116603f0116810167ffffffffffffffff81118282101715612ee057612ee0612e70565b604052818152838201602001851015612ef857600080fd5b816020850160208301376000918101602001919091529392505050565b600060208284031215612f2757600080fd5b813567ffffffffffffffff811115612f3e57600080fd5b612f4a84828501612e86565b949350505050565b80356001600160a01b0381168114612f6957600080fd5b919050565b600060208284031215612f8057600080fd5b612f8982612f52565b9392505050565b600060208284031215612fa257600080fd5b5035919050565b803560028110612f6957600080fd5b600060208284031215612fca57600080fd5b612f8982612fa9565b60005b83811015612fee578181015183820152602001612fd6565b50506000910152565b6000815180845261300f816020860160208601612fd3565b601f01601f19169290920160200192915050565b634e487b7160e01b600052602160045260246000fd5b6002811061304957613049613023565b9052565b600081518084526020840193506020830160005b828110156130885781516001600160a01b0316865260209586019590910190600101613061565b5093949350505050565b6003811061304957613049613023565b80518252600060208201516101a060208501526130c36101a0850182612ff7565b905060408301516130df60408601826001600160a01b03169052565b50606083015184820360608601526130f78282612ff7565b915050608083015184820360808601526131118282612ff7565b91505060a083015160a085015260c083015161313060c0860182613039565b5060e083015184820360e08601526131488282612ff7565b91505061010083015161316061010086018215159052565b5061012083015184820361012086015261317a828261304d565b9150506101408301516101408501526101608301516101608501526101808301516131a9610180860182613092565b509392505050565b6000602082016020835280845180835260408501915060408160051b86010192506020860160005b8281101561320a57603f198786030184526131f58583516130a2565b945060209384019391909101906001016131d9565b50929695505050505050565b602080825282518282018190526000918401906040840190835b8181101561324e578351835260209384019390920191600101613230565b509095945050505050565b6000806040838503121561326c57600080fd5b61327583612f52565b946020939093013593505050565b6000806040838503121561329657600080fd5b823591506132a660208401612f52565b90509250929050565b8c8152610180602082015260006132ca61018083018e612ff7565b6001600160a01b038d16604084015282810360608401526132eb818d612ff7565b905082810360808401526132ff818c612ff7565b90508960a084015261331460c084018a613039565b82810360e08401526133268189612ff7565b91505061333861010083018715159052565b8461012083015283610140830152613354610160830184613092565b9d9c50505050505050505050505050565b602081526000612f8960208301846130a2565b602080825282518282018190526000918401906040840190835b8181101561324e5783516001600160a01b0316835260209384019390920191600101613392565b60008060008060008060c087890312156133d257600080fd5b863567ffffffffffffffff8111156133e957600080fd5b6133f589828a01612e86565b965050602087013567ffffffffffffffff81111561341257600080fd5b61341e89828a01612e86565b955050604087013567ffffffffffffffff81111561343b57600080fd5b61344789828a01612e86565b9450506060870135925061345d60808801612fa9565b915060a087013567ffffffffffffffff81111561347957600080fd5b61348589828a01612e86565b9150509295509295509295565b60208082526013908201527213185b9908191bd95cc81b9bdd08195e1a5cdd606a1b604082015260600190565b634e487b7160e01b600052603260045260246000fd5b634e487b7160e01b600052601160045260246000fd5b6000600182016134fd576134fd6134d5565b5060010190565b600181811c9082168061351857607f821691505b60208210810361042257634e487b7160e01b600052602260045260246000fd5b600080835461354681613504565b60018216801561355d5760018114613572576135a2565b60ff19831686528115158202860193506135a2565b86600052602060002060005b8381101561359a5781548882015260019091019060200161357e565b505081860193505b509195945050505050565b6000602082840312156135bf57600080fd5b81518015158114612f8957600080fd5b6000816135de576135de6134d5565b506000190190565b6001600160a01b03841681526020810183905260608101612f4a6040830184613092565b6000825161361c818460208701612fd3565b9190910192915050565b601f82111561367057806000526020600020601f840160051c8101602085101561364d5750805b601f840160051c820191505b8181101561366d5760008155600101613659565b50505b505050565b815167ffffffffffffffff81111561368f5761368f612e70565b6136a38161369d8454613504565b84613626565b6020601f8211600181146136d757600083156136bf5750848201515b600019600385901b1c1916600184901b17845561366d565b600084815260208120601f198516915b8281101561370757878501518255602094850194600190920191016136e7565b50848210156137255786840151600019600387901b60f8161c191681555b50505050600190811b01905550565b8a81526101406020820152600061374f61014083018c612ff7565b6001600160a01b038b1660408401528281036060840152613770818b612ff7565b90508281036080840152613784818a612ff7565b90508760a084015261379960c0840188613039565b82810360e08401526137ab8187612ff7565b9415156101008401525050610120015298975050505050505050565b818103818111156116f0576116f06134d5565b634e487b7160e01b600052603160045260246000fd5b602081526000612f896020830184612ff756fea26469706673582212209ca66847a1cbab2f3a6051dc31fe6c054b55190e4325ea51a09e21a6efa0677764736f6c634300081c0033",
  "linkReferences": {},
  "deployedLinkReferences": {}
}