{
  "_format": "hh-sol-artifact-1",
  "contractName": "LandRegistry",
  "sourceName": "contracts/LandRegistry.sol",
  "abi": [
    {
      "inputs": [
        {
          "internalType": "address",
          "name": "_kycAddress",
          "type": "address"
        }
      ],
      "stateMutability": "nonpayable",
      "type": "constructor"
    },
    {
      "anonymous": false,
      "inputs": [
        {
          "indexed": false,
          "internalType": "uint256",
          "name": "landId",
          "type": "uint256"
        },
        {
          "indexed": false,
          "internalType": "address",
          "name": "currentOwner",
          "type": "address"
        },
        {
          "indexed": false,
          "internalType": "string",
          "name": "state",
          "type": "string"
        },
        {
          "indexed": false,
          "internalType": "string",
          "name": "lga",
          "type": "string"
        },
        {
          "indexed": false,
          "internalType": "uint256",
          "name": "area",
          "type": "uint256"
        },
        {
          "indexed": false,
          "internalType": "enum LandRegistry.LandUse",
          "name": "landuse",
          "type": "uint8"
        },
        {
          "indexed": false,
          "internalType": "string",
          "name": "landIpfs",
          "type": "string"
        },
        {
          "indexed": false,
          "internalType": "bool",
          "name": "isVerified",
          "type": "bool"
        },
        {
          "indexed": false,
          "internalType": "uint256",
          "name": "registrationDate",
          "type": "uint256"
        }
      ],
      "name": "LandCreated",
      "type": "event"
    },
    {
      "anonymous": false,
      "inputs": [
        {
          "indexed": false,
          "internalType": "address",
          "name": "currentOwner",
          "type": "address"
        },
        {
          "indexed": false,
          "internalType": "uint256",
          "name": "transferDate",
          "type": "uint256"
        },
        {
          "indexed": false,
          "internalType": "enum LandRegistry.TransferStatus",
          "name": "transferStatus",
          "type": "uint8"
        }
      ],
      "name": "LandUpdate",
      "type": "event"
    },
    {
      "anonymous": false,
      "inputs": [
        {
          "indexed": true,
          "internalType": "uint256",
          "name": "_landId",
          "type": "uint256"
        }
      ],
      "name": "verifiedLand",
      "type": "event"
    },
    {
      "inputs": [],
      "name": "getAllLand",
      "outputs": [
        {
          "components": [
            {
              "internalType": "uint256",
              "name": "landId",
              "type": "uint256"
            },
            {
              "internalType": "address",
              "name": "currentOwner",
              "type": "address"
            },
            {
              "internalType": "string",
              "name": "state",
              "type": "string"
            },
            {
              "internalType": "string",
              "name": "lga",
              "type": "string"
            },
            {
              "internalType": "uint256",
              "name": "area",
              "type": "uint256"
            },
            {
              "internalType": "enum LandRegistry.LandUse",
              "name": "landUse",
              "type": "uint8"
            },
            {
              "internalType": "string",
              "name": "landIpfs",
              "type": "string"
            },
            {
              "internalType": "bool",
              "name": "isVerified",
              "type": "bool"
            },
            {
              "internalType": "address[]",
              "name": "ownershipHistory",
              "type": "address[]"
            },
            {
              "internalType": "uint256",
              "name": "registrationDate",
              "type": "uint256"
            },
            {
              "internalType": "uint256",
              "name": "lastTransferDate",
              "type": "uint256"
            },
            {
              "internalType": "enum LandRegistry.TransferStatus",
              "name": "transferStatus",
              "type": "uint8"
            }
          ],
          "internalType": "struct LandRegistry.LandData[]",
          "name": "",
          "type": "tuple[]"
        }
      ],
      "stateMutability": "view",
      "type": "function"
    },
    {
      "inputs": [
        {
          "internalType": "uint256",
          "name": "_landId",
          "type": "uint256"
        }
      ],
      "name": "getLand",
      "outputs": [
        {
          "components": [
            {
              "internalType": "uint256",
              "name": "landId",
              "type": "uint256"
            },
            {
              "internalType": "address",
              "name": "currentOwner",
              "type": "address"
            },
            {
              "internalType": "string",
              "name": "state",
              "type": "string"
            },
            {
              "internalType": "string",
              "name": "lga",
              "type": "string"
            },
            {
              "internalType": "uint256",
              "name": "area",
              "type": "uint256"
            },
            {
              "internalType": "enum LandRegistry.LandUse",
              "name": "landUse",
              "type": "uint8"
            },
            {
              "internalType": "string",
              "name": "landIpfs",
              "type": "string"
            },
            {
              "internalType": "bool",
              "name": "isVerified",
              "type": "bool"
            },
            {
              "internalType": "address[]",
              "name": "ownershipHistory",
              "type": "address[]"
            },
            {
              "internalType": "uint256",
              "name": "registrationDate",
              "type": "uint256"
            },
            {
              "internalType": "uint256",
              "name": "lastTransferDate",
              "type": "uint256"
            },
            {
              "internalType": "enum LandRegistry.TransferStatus",
              "name": "transferStatus",
              "type": "uint8"
            }
          ],
          "internalType": "struct LandRegistry.LandData",
          "name": "",
          "type": "tuple"
        }
      ],
      "stateMutability": "view",
      "type": "function"
    },
    {
      "inputs": [
        {
          "internalType": "address",
          "name": "",
          "type": "address"
        }
      ],
      "name": "isLandOwner",
      "outputs": [
        {
          "internalType": "bool",
          "name": "",
          "type": "bool"
        }
      ],
      "stateMutability": "view",
      "type": "function"
    },
    {
      "inputs": [],
      "name": "kyc",
      "outputs": [
        {
          "internalType": "contract IKYC",
          "name": "",
          "type": "address"
        }
      ],
      "stateMutability": "view",
      "type": "function"
    },
    {
      "inputs": [
        {
          "internalType": "uint256",
          "name": "",
          "type": "uint256"
        }
      ],
      "name": "landList",
      "outputs": [
        {
          "internalType": "uint256",
          "name": "landId",
          "type": "uint256"
        },
        {
          "internalType": "address",
          "name": "currentOwner",
          "type": "address"
        },
        {
          "internalType": "string",
          "name": "state",
          "type": "string"
        },
        {
          "internalType": "string",
          "name": "lga",
          "type": "string"
        },
        {
          "internalType": "uint256",
          "name": "area",
          "type": "uint256"
        },
        {
          "internalType": "enum LandRegistry.LandUse",
          "name": "landUse",
          "type": "uint8"
        },
        {
          "internalType": "string",
          "name": "landIpfs",
          "type": "string"
        },
        {
          "internalType": "bool",
          "name": "isVerified",
          "type": "bool"
        },
        {
          "internalType": "uint256",
          "name": "registrationDate",
          "type": "uint256"
        },
        {
          "internalType": "uint256",
          "name": "lastTransferDate",
          "type": "uint256"
        },
        {
          "internalType": "enum LandRegistry.TransferStatus",
          "name": "transferStatus",
          "type": "uint8"
        }
      ],
      "stateMutability": "view",
      "type": "function"
    },
    {
      "inputs": [
        {
          "internalType": "address",
          "name": "",
          "type": "address"
        }
      ],
      "name": "landOwners",
      "outputs": [
        {
          "internalType": "address",
          "name": "landOwnerAddress",
          "type": "address"
        },
        {
          "internalType": "bool",
          "name": "isActive",
          "type": "bool"
        }
      ],
      "stateMutability": "view",
      "type": "function"
    },
    {
      "inputs": [
        {
          "internalType": "string",
          "name": "_state",
          "type": "string"
        },
        {
          "internalType": "string",
          "name": "_lga",
          "type": "string"
        },
        {
          "internalType": "uint256",
          "name": "_area",
          "type": "uint256"
        },
        {
          "internalType": "enum LandRegistry.LandUse",
          "name": "_landUse",
          "type": "uint8"
        },
        {
          "internalType": "string",
          "name": "_ipfs",
          "type": "string"
        }
      ],
      "name": "registerLand",
      "outputs": [],
      "stateMutability": "nonpayable",
      "type": "function"
    },
    {
      "inputs": [
        {
          "internalType": "uint256",
          "name": "_landId",
          "type": "uint256"
        },
        {
          "internalType": "address",
          "name": "_newOwner",
          "type": "address"
        }
      ],
      "name": "transferLand",
      "outputs": [],
      "stateMutability": "nonpayable",
      "type": "function"
    },
    {
      "inputs": [
        {
          "internalType": "uint256",
          "name": "_landId",
          "type": "uint256"
        }
      ],
      "name": "verifyLand",
      "outputs": [],
      "stateMutability": "nonpayable",
      "type": "function"
    }
  ],
  "bytecode": "0x6080604052348015600f57600080fd5b50604051611f0c380380611f0c833981016040819052602c916050565b600080546001600160a01b0319166001600160a01b0392909216919091179055607e565b600060208284031215606157600080fd5b81516001600160a01b0381168114607757600080fd5b9392505050565b611e7f8061008d6000396000f3fe608060405234801561001057600080fd5b50600436106100935760003560e01c806390d6b45f1161006657806390d6b45f1461014f578063c798ff7d1461017a578063d5e421511461018d578063f02dd53f146101b7578063f9c43bdf146101d757600080fd5b80634dc3c3261461009857806367b57142146100d057806384a968521461012557806387757e341461013a575b600080fd5b6100bb6100a6366004611759565b60036020526000908152604090205460ff1681565b60405190151581526020015b60405180910390f35b6101066100de366004611759565b600260208190526000918252604090912080549101546001600160a01b039091169060ff1682565b604080516001600160a01b0390931683529015156020830152016100c7565b610138610133366004611820565b6101ea565b005b6101426107f2565b6040516100c79190611a8d565b600054610162906001600160a01b031681565b6040516001600160a01b0390911681526020016100c7565b610138610188366004611af2565b610b1a565b6101a061019b366004611b1e565b610f3a565b6040516100c79b9a99989796959493929190611b37565b6101ca6101c5366004611b1e565b611152565b6040516100c79190611bd2565b6101386101e5366004611b1e565b611493565b60005460405163056720bf60e51b81523360048201526001600160a01b039091169063ace417e090602401602060405180830381865afa158015610232573d6000803e3d6000fd5b505050506040513d601f19601f820116820180604052508101906102569190611be5565b6102a15760405162461bcd60e51b815260206004820152601760248201527612d650c815995c9a599a58d85d1a5bdb881b9959591959604a1b60448201526064015b60405180910390fd5b6102df6040518060400160405280601c81526020017f72656769737465724c616e642066756e6374696f6e2063616c6c656400000000815250611590565b600180546040805183815280820190915290916000919060208083019080368337019050509050338160008151811061031a5761031a611c07565b60200260200101906001600160a01b031690816001600160a01b0316815250506000604051806101800160405280848152602001336001600160a01b031681526020018981526020018881526020018781526020018660018111156103815761038161191b565b8152602001858152602001600015158152602001838152602001428152602001428152602001600060028111156103ba576103ba61191b565b905260018054808201825560009190915281517fb10e2d527612073b26eecdfd717e6a320cf44b4afac2b0732d9fcbe2b7fa0cf6600c90920291820190815560208301517fb10e2d527612073b26eecdfd717e6a320cf44b4afac2b0732d9fcbe2b7fa0cf7830180546001600160a01b0319166001600160a01b039092169190911790556040830151929350839290917fb10e2d527612073b26eecdfd717e6a320cf44b4afac2b0732d9fcbe2b7fa0cf801906104779082611ca0565b506060820151600382019061048c9082611ca0565b506080820151600482015560a082015160058201805460ff1916600183818111156104b9576104b961191b565b021790555060c082015160068201906104d29082611ca0565b5060e082015160078201805460ff191691151591909117905561010082015180516105079160088401916020909101906115fb565b506101208201516009820155610140820151600a820155610160820151600b8201805460ff191660018360028111156105425761054261191b565b0217905550505060008381526005602090815260409182902083518155908301516001820180546001600160a01b0319166001600160a01b0390921691909117905590820151829190600282019061059a9082611ca0565b50606082015160038201906105af9082611ca0565b506080820151600482015560a082015160058201805460ff1916600183818111156105dc576105dc61191b565b021790555060c082015160068201906105f59082611ca0565b5060e082015160078201805460ff1916911515919091179055610100820151805161062a9160088401916020909101906115fb565b506101208201516009820155610140820151600a820155610160820151600b8201805460ff191660018360028111156106655761066561191b565b021790555050506000838152600460209081526040808320805460ff1916905533808452600683528184208054600181018255908552838520018790558352600390915290205460ff166107a0576040805160608101825233808252600090815260066020908152908390208054845181840281018401909552808552929382850193909283018282801561071957602002820191906000526020600020905b815481526020019060010190808311610705575b5050509183525050600160209182018190523360009081526002835260409020835181546001600160a01b0319166001600160a01b03909116178155838301518051919361076c93850192910190611660565b506040918201516002909101805491151560ff19928316179055336000908152600360205291909120805490911660011790555b7f8a001bea4e2217c2744628a16f10802605d2e0e1322861281bd7506bbc0a80d083338a8a8a8a8a6000426040516107e099989796959493929190611d5f565b60405180910390a15050505050505050565b60606001805480602002602001604051908101604052809291908181526020016000905b82821015610b115760008481526020908190206040805161018081018252600c86029092018054835260018101546001600160a01b0316938301939093526002830180549293929184019161086a90611c1d565b80601f016020809104026020016040519081016040528092919081815260200182805461089690611c1d565b80156108e35780601f106108b8576101008083540402835291602001916108e3565b820191906000526020600020905b8154815290600101906020018083116108c657829003601f168201915b505050505081526020016003820180546108fc90611c1d565b80601f016020809104026020016040519081016040528092919081815260200182805461092890611c1d565b80156109755780601f1061094a57610100808354040283529160200191610975565b820191906000526020600020905b81548152906001019060200180831161095857829003601f168201915b505050918352505060048201546020820152600582015460409091019060ff1660018111156109a6576109a661191b565b60018111156109b7576109b761191b565b81526020016006820180546109cb90611c1d565b80601f01602080910402602001604051908101604052809291908181526020018280546109f790611c1d565b8015610a445780601f10610a1957610100808354040283529160200191610a44565b820191906000526020600020905b815481529060010190602001808311610a2757829003601f168201915b5050509183525050600782015460ff1615156020808301919091526008830180546040805182850281018501825282815294019392830182828015610ab257602002820191906000526020600020905b81546001600160a01b03168152600190910190602001808311610a94575b505050918352505060098201546020820152600a8201546040820152600b82015460609091019060ff166002811115610aed57610aed61191b565b6002811115610afe57610afe61191b565b8152505081526020019060010190610816565b50505050905090565b60005460405163056720bf60e51b81523360048201526001600160a01b039091169063ace417e090602401602060405180830381865afa158015610b62573d6000803e3d6000fd5b505050506040513d601f19601f82011682018060405250810190610b869190611be5565b610bcc5760405162461bcd60e51b815260206004820152601760248201527612d650c815995c9a599a58d85d1a5bdb881b9959591959604a1b6044820152606401610298565b60015482908110610bef5760405162461bcd60e51b815260040161029890611ddd565b600060018481548110610c0457610c04611c07565b600091825260209091206001600c90920201908101549091506001600160a01b03163314610c745760405162461bcd60e51b815260206004820181905260248201527f4f6e6c792074686520776f6e65722063616e207472616e73666572206c616e646044820152606401610298565b6001600160a01b038316610cbe5760405162461bcd60e51b815260206004820152601160248201527024b73b30b634b2103732bb9037bbb732b960791b6044820152606401610298565b60005460405163056720bf60e51b81526001600160a01b0385811660048301529091169063ace417e090602401602060405180830381865afa158015610d08573d6000803e3d6000fd5b505050506040513d601f19601f82011682018060405250810190610d2c9190611be5565b610d785760405162461bcd60e51b815260206004820152601d60248201527f4e6577206f776e6572206d757374206265204b594320766572666965640000006044820152606401610298565b600181810180546001600160a01b0386166001600160a01b0319918216811790925542600a85015560088401805480850182556000918252602080832090910180549093168417909255600b8501805460ff1916600217905591825260068152604080832080549485018155835281832090930187905533825260039052205460ff16610eec5760408051606081018252338082526000908152600660209081529083902080548451818402810184019095528085529293828501939092830182828015610e6557602002820191906000526020600020905b815481526020019060010190808311610e51575b5050509183525050600160209182018190523360009081526002835260409020835181546001600160a01b0319166001600160a01b039091161781558383015180519193610eb893850192910190611660565b506040918201516002909101805491151560ff19928316179055336000908152600360205291909120805490911660011790555b600a810154600b8201546040517f8bee0b9a13e377a566d828cec2ed39a75c71f88d4127d913207563fabdc593e892610f2c92879260ff90911690611e0a565b60405180910390a150505050565b60018181548110610f4a57600080fd5b60009182526020909120600c90910201805460018201546002830180549294506001600160a01b039091169291610f8090611c1d565b80601f0160208091040260200160405190810160405280929190818152602001828054610fac90611c1d565b8015610ff95780601f10610fce57610100808354040283529160200191610ff9565b820191906000526020600020905b815481529060010190602001808311610fdc57829003601f168201915b50505050509080600301805461100e90611c1d565b80601f016020809104026020016040519081016040528092919081815260200182805461103a90611c1d565b80156110875780601f1061105c57610100808354040283529160200191611087565b820191906000526020600020905b81548152906001019060200180831161106a57829003601f168201915b50505050600483015460058401546006850180549495929460ff9092169350906110b090611c1d565b80601f01602080910402602001604051908101604052809291908181526020018280546110dc90611c1d565b80156111295780601f106110fe57610100808354040283529160200191611129565b820191906000526020600020905b81548152906001019060200180831161110c57829003601f168201915b50505060078401546009850154600a860154600b90960154949560ff928316959194509250168b565b61115a61169b565b6001548290811061117d5760405162461bcd60e51b815260040161029890611ddd565b6001838154811061119057611190611c07565b90600052602060002090600c020160405180610180016040529081600082015481526020016001820160009054906101000a90046001600160a01b03166001600160a01b03166001600160a01b031681526020016002820180546111f390611c1d565b80601f016020809104026020016040519081016040528092919081815260200182805461121f90611c1d565b801561126c5780601f106112415761010080835404028352916020019161126c565b820191906000526020600020905b81548152906001019060200180831161124f57829003601f168201915b5050505050815260200160038201805461128590611c1d565b80601f01602080910402602001604051908101604052809291908181526020018280546112b190611c1d565b80156112fe5780601f106112d3576101008083540402835291602001916112fe565b820191906000526020600020905b8154815290600101906020018083116112e157829003601f168201915b505050918352505060048201546020820152600582015460409091019060ff16600181111561132f5761132f61191b565b60018111156113405761134061191b565b815260200160068201805461135490611c1d565b80601f016020809104026020016040519081016040528092919081815260200182805461138090611c1d565b80156113cd5780601f106113a2576101008083540402835291602001916113cd565b820191906000526020600020905b8154815290600101906020018083116113b057829003601f168201915b5050509183525050600782015460ff161515602080830191909152600883018054604080518285028101850182528281529401939283018282801561143b57602002820191906000526020600020905b81546001600160a01b0316815260019091019060200180831161141d575b505050918352505060098201546020820152600a8201546040820152600b82015460609091019060ff1660028111156114765761147661191b565b60028111156114875761148761191b565b90525091505b50919050565b600154819081106114b65760405162461bcd60e51b815260040161029890611ddd565b600082815260046020526040902054829060ff161561150f5760405162461bcd60e51b815260206004820152601560248201527413185b9908185b1c9958591e481d995c9a599a5959605a1b6044820152606401610298565b60006001848154811061152457611524611c07565b600091825260208083206007600c90930201918201805460ff1990811660019081179092558885526004909252604080852080549093169091179091555190925085917ff55e0413f8ce4b6b376fe3c40f28944166aaae5f59ba769159dbebfc8c77ac7b91a250505050565b6115d3816040516024016115a49190611e36565b60408051601f198184030181529190526020810180516001600160e01b031663104c13eb60e21b1790526115d6565b50565b6115d38160006a636f6e736f6c652e6c6f679050600080835160208501845afa505050565b828054828255906000526020600020908101928215611650579160200282015b8281111561165057825182546001600160a01b0319166001600160a01b0390911617825560209092019160019091019061161b565b5061165c929150611728565b5090565b828054828255906000526020600020908101928215611650579160200282015b82811115611650578251825591602001919060010190611680565b6040518061018001604052806000815260200160006001600160a01b03168152602001606081526020016060815260200160008152602001600060018111156116e6576116e661191b565b815260200160608152602001600015158152602001606081526020016000815260200160008152602001600060028111156117235761172361191b565b905290565b5b8082111561165c5760008155600101611729565b80356001600160a01b038116811461175457600080fd5b919050565b60006020828403121561176b57600080fd5b6117748261173d565b9392505050565b634e487b7160e01b600052604160045260246000fd5b600082601f8301126117a257600080fd5b813567ffffffffffffffff8111156117bc576117bc61177b565b604051601f8201601f19908116603f0116810167ffffffffffffffff811182821017156117eb576117eb61177b565b60405281815283820160200185101561180357600080fd5b816020850160208301376000918101602001919091529392505050565b600080600080600060a0868803121561183857600080fd5b853567ffffffffffffffff81111561184f57600080fd5b61185b88828901611791565b955050602086013567ffffffffffffffff81111561187857600080fd5b61188488828901611791565b945050604086013592506060860135600281106118a057600080fd5b9150608086013567ffffffffffffffff8111156118bc57600080fd5b6118c888828901611791565b9150509295509295909350565b6000815180845260005b818110156118fb576020818501810151868301820152016118df565b506000602082860101526020601f19601f83011685010191505092915050565b634e487b7160e01b600052602160045260246000fd5b600281106119415761194161191b565b9052565b600081518084526020840193506020830160005b828110156119805781516001600160a01b0316865260209586019590910190600101611959565b5093949350505050565b600381106119415761194161191b565b80518252600060208201516119ba60208501826001600160a01b03169052565b50604082015161018060408501526119d66101808501826118d5565b9050606083015184820360608601526119ef82826118d5565b9150506080830151608085015260a0830151611a0e60a0860182611931565b5060c083015184820360c0860152611a2682826118d5565b91505060e0830151611a3c60e086018215159052565b50610100830151848203610100860152611a568282611945565b915050610120830151610120850152610140830151610140850152610160830151611a8561016086018261198a565b509392505050565b6000602082016020835280845180835260408501915060408160051b86010192506020860160005b82811015611ae657603f19878603018452611ad185835161199a565b94506020938401939190910190600101611ab5565b50929695505050505050565b60008060408385031215611b0557600080fd5b82359150611b156020840161173d565b90509250929050565b600060208284031215611b3057600080fd5b5035919050565b8b81526001600160a01b038b16602082015261016060408201819052600090611b629083018c6118d5565b8281036060840152611b74818c6118d5565b9050896080840152611b8960a084018a611931565b82810360c0840152611b9b81896118d5565b91505085151560e08301528461010083015283610120830152611bc261014083018461198a565b9c9b505050505050505050505050565b602081526000611774602083018461199a565b600060208284031215611bf757600080fd5b8151801515811461177457600080fd5b634e487b7160e01b600052603260045260246000fd5b600181811c90821680611c3157607f821691505b60208210810361148d57634e487b7160e01b600052602260045260246000fd5b601f821115611c9b57806000526020600020601f840160051c81016020851015611c785750805b601f840160051c820191505b81811015611c985760008155600101611c84565b50505b505050565b815167ffffffffffffffff811115611cba57611cba61177b565b611cce81611cc88454611c1d565b84611c51565b6020601f821160018114611d025760008315611cea5750848201515b600019600385901b1c1916600184901b178455611c98565b600084815260208120601f198516915b82811015611d325787850151825560209485019460019092019101611d12565b5084821015611d505786840151600019600387901b60f8161c191681555b50505050600190811b01905550565b8981526001600160a01b038916602082015261012060408201819052600090611d8a9083018a6118d5565b8281036060840152611d9c818a6118d5565b9050876080840152611db160a0840188611931565b82810360c0840152611dc381876118d5565b94151560e084015250506101000152979650505050505050565b60208082526013908201527213185b9908191bd95cc81b9bdd08195e1a5cdd606a1b604082015260600190565b6001600160a01b03841681526020810183905260608101611e2e604083018461198a565b949350505050565b60208152600061177460208301846118d556fea26469706673582212204222b128ff93534b12ac03761a59dff0ea4a09a53f939f6a87a032dbc18dd12d64736f6c634300081c0033",
  "linkReferences": {},
  "deployedLinkReferences": {}
}