{
  "_format": "hh-sol-artifact-1",
  "contractName": "LandRegistryKYC",
  "sourceName": "contracts/KYC.sol",
  "abi": [
    {
      "anonymous": false,
      "inputs": [
        {
          "indexed": false,
          "internalType": "address",
          "name": "user",
          "type": "address"
        },
        {
          "indexed": false,
          "internalType": "bool",
          "name": "isVerified",
          "type": "bool"
        }
      ],
      "name": "KYCSet",
      "type": "event"
    },
    {
      "inputs": [
        {
          "internalType": "address",
          "name": "user",
          "type": "address"
        }
      ],
      "name": "getUserKYCData",
      "outputs": [
        {
          "internalType": "string",
          "name": "ninHash",
          "type": "string"
        },
        {
          "internalType": "string",
          "name": "photoCID",
          "type": "string"
        },
        {
          "internalType": "bool",
          "name": "isVerified",
          "type": "bool"
        }
      ],
      "stateMutability": "view",
      "type": "function"
    },
    {
      "inputs": [],
      "name": "getVerifiedUsers",
      "outputs": [
        {
          "internalType": "address[]",
          "name": "",
          "type": "address[]"
        }
      ],
      "stateMutability": "view",
      "type": "function"
    },
    {
      "inputs": [
        {
          "internalType": "address",
          "name": "",
          "type": "address"
        }
      ],
      "name": "hasSubmittedKYC",
      "outputs": [
        {
          "internalType": "bool",
          "name": "",
          "type": "bool"
        }
      ],
      "stateMutability": "view",
      "type": "function"
    },
    {
      "inputs": [
        {
          "internalType": "address",
          "name": "user",
          "type": "address"
        }
      ],
      "name": "isUserVerified",
      "outputs": [
        {
          "internalType": "bool",
          "name": "",
          "type": "bool"
        }
      ],
      "stateMutability": "view",
      "type": "function"
    },
    {
      "inputs": [
        {
          "internalType": "address",
          "name": "",
          "type": "address"
        }
      ],
      "name": "kycRecords",
      "outputs": [
        {
          "internalType": "string",
          "name": "ninHash",
          "type": "string"
        },
        {
          "internalType": "string",
          "name": "photoCID",
          "type": "string"
        },
        {
          "internalType": "bool",
          "name": "isVerified",
          "type": "bool"
        }
      ],
      "stateMutability": "view",
      "type": "function"
    },
    {
      "inputs": [
        {
          "internalType": "address",
          "name": "user",
          "type": "address"
        },
        {
          "internalType": "string",
          "name": "ninHash",
          "type": "string"
        },
        {
          "internalType": "string",
          "name": "photoCID",
          "type": "string"
        }
      ],
      "name": "setKYC",
      "outputs": [],
      "stateMutability": "nonpayable",
      "type": "function"
    },
    {
      "inputs": [
        {
          "internalType": "uint256",
          "name": "",
          "type": "uint256"
        }
      ],
      "name": "users",
      "outputs": [
        {
          "internalType": "address",
          "name": "",
          "type": "address"
        }
      ],
      "stateMutability": "view",
      "type": "function"
    }
  ],
  "bytecode": "0x6080604052348015600f57600080fd5b50610b508061001f6000396000f3fe608060405234801561001057600080fd5b506004361061007d5760003560e01c8063365b98b21161005b578063365b98b2146100f55780637eb606e814610120578063ace417e014610133578063f6a413cc1461016357600080fd5b806307824dcf14610082578063268f860414610097578063307d7b33146100c2575b600080fd5b610095610090366004610817565b610178565b005b6100aa6100a5366004610890565b6102f1565b6040516100b9939291906108f8565b60405180910390f35b6100e56100d0366004610890565b60016020526000908152604090205460ff1681565b60405190151581526020016100b9565b610108610103366004610930565b610475565b6040516001600160a01b0390911681526020016100b9565b6100aa61012e366004610890565b61049f565b6100e5610141366004610890565b6001600160a01b03166000908152600260208190526040909120015460ff1690565b61016b6105d4565b6040516100b99190610949565b6001600160a01b03831660009081526001602052604090205460ff16156101e55760405162461bcd60e51b815260206004820181905260248201527f4b594320616c72656164792065786973747320666f7220746869732075736572604482015260640160405180910390fd5b6040805160608101825283815260208082018490526001828401526001600160a01b0386166000908152600290915291909120815181906102269082610a1e565b506020820151600182019061023b9082610a1e565b50604091820151600291909101805491151560ff1992831617905560008054600181810183557f290decd9548b62a8d60345a988386fc84ba6bc95484008f6362f93160ef3e56390910180546001600160a01b0389166001600160a01b03199091168117909155808352602082815292859020805490941682179093558351928352908201527f97b4072981ad9b2269406ff8cc9d70c26afd27cea67b75e2573b8710a5e880c9910160405180910390a1505050565b60608060008060026000866001600160a01b03166001600160a01b0316815260200190815260200160002060405180606001604052908160008201805461033790610995565b80601f016020809104026020016040519081016040528092919081815260200182805461036390610995565b80156103b05780601f10610385576101008083540402835291602001916103b0565b820191906000526020600020905b81548152906001019060200180831161039357829003601f168201915b505050505081526020016001820180546103c990610995565b80601f01602080910402602001604051908101604052809291908181526020018280546103f590610995565b80156104425780601f1061041757610100808354040283529160200191610442565b820191906000526020600020905b81548152906001019060200180831161042557829003601f168201915b50505091835250506002919091015460ff1615156020918201528151908201516040909201519097919650945092505050565b6000818154811061048557600080fd5b6000918252602090912001546001600160a01b0316905081565b6002602052600090815260409020805481906104ba90610995565b80601f01602080910402602001604051908101604052809291908181526020018280546104e690610995565b80156105335780601f1061050857610100808354040283529160200191610533565b820191906000526020600020905b81548152906001019060200180831161051657829003601f168201915b50505050509080600101805461054890610995565b80601f016020809104026020016040519081016040528092919081815260200182805461057490610995565b80156105c15780601f10610596576101008083540402835291602001916105c1565b820191906000526020600020905b8154815290600101906020018083116105a457829003601f168201915b5050506002909301549192505060ff1683565b60606000805b60005481101561064057600260008083815481106105fa576105fa610add565b60009182526020808320909101546001600160a01b0316835282019290925260400190206002015460ff1615610638578161063481610af3565b9250505b6001016105da565b5060008167ffffffffffffffff81111561065c5761065c610772565b604051908082528060200260200182016040528015610685578160200160208202803683370190505b5090506000805b60005481101561074d57600260008083815481106106ac576106ac610add565b60009182526020808320909101546001600160a01b0316835282019290925260400190206002015460ff161561074557600081815481106106ef576106ef610add565b9060005260206000200160009054906101000a90046001600160a01b031683838151811061071f5761071f610add565b6001600160a01b03909216602092830291909101909101528161074181610af3565b9250505b60010161068c565b50909392505050565b80356001600160a01b038116811461076d57600080fd5b919050565b634e487b7160e01b600052604160045260246000fd5b600082601f83011261079957600080fd5b813567ffffffffffffffff8111156107b3576107b3610772565b604051601f8201601f19908116603f0116810167ffffffffffffffff811182821017156107e2576107e2610772565b6040528181528382016020018510156107fa57600080fd5b816020850160208301376000918101602001919091529392505050565b60008060006060848603121561082c57600080fd5b61083584610756565b9250602084013567ffffffffffffffff81111561085157600080fd5b61085d86828701610788565b925050604084013567ffffffffffffffff81111561087a57600080fd5b61088686828701610788565b9150509250925092565b6000602082840312156108a257600080fd5b6108ab82610756565b9392505050565b6000815180845260005b818110156108d8576020818501810151868301820152016108bc565b506000602082860101526020601f19601f83011685010191505092915050565b60608152600061090b60608301866108b2565b828103602084015261091d81866108b2565b9150508215156040830152949350505050565b60006020828403121561094257600080fd5b5035919050565b602080825282518282018190526000918401906040840190835b8181101561098a5783516001600160a01b0316835260209384019390920191600101610963565b509095945050505050565b600181811c908216806109a957607f821691505b6020821081036109c957634e487b7160e01b600052602260045260246000fd5b50919050565b601f821115610a1957806000526020600020601f840160051c810160208510156109f65750805b601f840160051c820191505b81811015610a165760008155600101610a02565b50505b505050565b815167ffffffffffffffff811115610a3857610a38610772565b610a4c81610a468454610995565b846109cf565b6020601f821160018114610a805760008315610a685750848201515b600019600385901b1c1916600184901b178455610a16565b600084815260208120601f198516915b82811015610ab05787850151825560209485019460019092019101610a90565b5084821015610ace5786840151600019600387901b60f8161c191681555b50505050600190811b01905550565b634e487b7160e01b600052603260045260246000fd5b600060018201610b1357634e487b7160e01b600052601160045260246000fd5b506001019056fea2646970667358221220aaa4cc4bf1b136ff6ff1c9abfe7d02744d504567426a3226c92057b29ae0d77f64736f6c634300081c0033",
  "linkReferences": {},
  "deployedLinkReferences": {}
}