{
  "_format": "hh-sol-artifact-1",
  "contractName": "MockKYC",
  "sourceName": "contracts/MockKYC.sol",
  "abi": [
    {
      "inputs": [
        {
          "internalType": "address",
          "name": "user",
          "type": "address"
        }
      ],
      "name": "getUserKYCData",
      "outputs": [
        {
          "internalType": "string",
          "name": "ninHash",
          "type": "string"
        },
        {
          "internalType": "string",
          "name": "photoCID",
          "type": "string"
        },
        {
          "internalType": "bool",
          "name": "isVerified",
          "type": "bool"
        }
      ],
      "stateMutability": "view",
      "type": "function"
    },
    {
      "inputs": [],
      "name": "getVerifiedUsers",
      "outputs": [
        {
          "internalType": "address[]",
          "name": "",
          "type": "address[]"
        }
      ],
      "stateMutability": "view",
      "type": "function"
    },
    {
      "inputs": [
        {
          "internalType": "address",
          "name": "user",
          "type": "address"
        }
      ],
      "name": "isUserVerified",
      "outputs": [
        {
          "internalType": "bool",
          "name": "",
          "type": "bool"
        }
      ],
      "stateMutability": "view",
      "type": "function"
    },
    {
      "inputs": [
        {
          "internalType": "address",
          "name": "user",
          "type": "address"
        }
      ],
      "name": "revokeUser",
      "outputs": [],
      "stateMutability": "nonpayable",
      "type": "function"
    },
    {
      "inputs": [
        {
          "internalType": "address",
          "name": "user",
          "type": "address"
        },
        {
          "internalType": "string",
          "name": "ninHash",
          "type": "string"
        },
        {
          "internalType": "string",
          "name": "photoCID",
          "type": "string"
        }
      ],
      "name": "setUserKYCData",
      "outputs": [],
      "stateMutability": "nonpayable",
      "type": "function"
    },
    {
      "inputs": [
        {
          "internalType": "address",
          "name": "user",
          "type": "address"
        }
      ],
      "name": "verifyUser",
      "outputs": [],
      "stateMutability": "nonpayable",
      "type": "function"
    }
  ],
  "bytecode": "0x6080604052348015600f57600080fd5b506108eb8061001f6000396000f3fe608060405234801561001057600080fd5b50600436106100625760003560e01c8063268f8604146100675780634d81312014610092578063ace417e0146100a7578063e49d677a146100e3578063ef097fc4146100f6578063f6a413cc14610109575b600080fd5b61007a610075366004610510565b61011e565b60405161008993929190610578565b60405180910390f35b6100a56100a0366004610510565b61027e565b005b6100d36100b5366004610510565b6001600160a01b031660009081526020819052604090205460ff1690565b6040519015158152602001610089565b6100a56100f1366004610655565b610307565b6100a5610104366004610510565b610352565b610111610492565b60405161008991906106ce565b6001600160a01b038116600090815260016020908152604080832060028352818420928490529083205481546060948594909392909160ff9091169083906101659061071a565b80601f01602080910402602001604051908101604052809291908181526020018280546101919061071a565b80156101de5780601f106101b3576101008083540402835291602001916101de565b820191906000526020600020905b8154815290600101906020018083116101c157829003601f168201915b505050505092508180546101f19061071a565b80601f016020809104026020016040519081016040528092919081815260200182805461021d9061071a565b801561026a5780601f1061023f5761010080835404028352916020019161026a565b820191906000526020600020905b81548152906001019060200180831161024d57829003601f168201915b505050505091509250925092509193909250565b6001600160a01b03811660009081526020819052604090205460ff16610304576001600160a01b0381166000818152602081905260408120805460ff191660019081179091556003805491820181559091527fc2575a0e9e593c00f959f8c92f12db2869c3395a3b0502d05e2516446f71f85b0180546001600160a01b03191690911790555b50565b6001600160a01b038316600090815260016020526040902061032983826107a3565b506001600160a01b038316600090815260026020526040902061034c82826107a3565b50505050565b6001600160a01b03811660009081526020819052604090205460ff1615610304576001600160a01b0381166000908152602081905260408120805460ff191690555b60035481101561048e57816001600160a01b0316600382815481106103bb576103bb610862565b6000918252602090912001546001600160a01b03160361048657600380546103e590600190610878565b815481106103f5576103f5610862565b600091825260209091200154600380546001600160a01b03909216918390811061042157610421610862565b9060005260206000200160006101000a8154816001600160a01b0302191690836001600160a01b0316021790555060038054806104605761046061089f565b600082815260209020810160001990810180546001600160a01b03191690550190555050565b600101610394565b5050565b606060038054806020026020016040519081016040528092919081815260200182805480156104ea57602002820191906000526020600020905b81546001600160a01b031681526001909101906020018083116104cc575b5050505050905090565b80356001600160a01b038116811461050b57600080fd5b919050565b60006020828403121561052257600080fd5b61052b826104f4565b9392505050565b6000815180845260005b818110156105585760208185018101518683018201520161053c565b506000602082860101526020601f19601f83011685010191505092915050565b60608152600061058b6060830186610532565b828103602084015261059d8186610532565b9150508215156040830152949350505050565b634e487b7160e01b600052604160045260246000fd5b600082601f8301126105d757600080fd5b813567ffffffffffffffff8111156105f1576105f16105b0565b604051601f8201601f19908116603f0116810167ffffffffffffffff81118282101715610620576106206105b0565b60405281815283820160200185101561063857600080fd5b816020850160208301376000918101602001919091529392505050565b60008060006060848603121561066a57600080fd5b610673846104f4565b9250602084013567ffffffffffffffff81111561068f57600080fd5b61069b868287016105c6565b925050604084013567ffffffffffffffff8111156106b857600080fd5b6106c4868287016105c6565b9150509250925092565b602080825282518282018190526000918401906040840190835b8181101561070f5783516001600160a01b03168352602093840193909201916001016106e8565b509095945050505050565b600181811c9082168061072e57607f821691505b60208210810361074e57634e487b7160e01b600052602260045260246000fd5b50919050565b601f82111561079e57806000526020600020601f840160051c8101602085101561077b5750805b601f840160051c820191505b8181101561079b5760008155600101610787565b50505b505050565b815167ffffffffffffffff8111156107bd576107bd6105b0565b6107d1816107cb845461071a565b84610754565b6020601f82116001811461080557600083156107ed5750848201515b600019600385901b1c1916600184901b17845561079b565b600084815260208120601f198516915b828110156108355787850151825560209485019460019092019101610815565b50848210156108535786840151600019600387901b60f8161c191681555b50505050600190811b01905550565b634e487b7160e01b600052603260045260246000fd5b8181038181111561089957634e487b7160e01b600052601160045260246000fd5b92915050565b634e487b7160e01b600052603160045260246000fdfea2646970667358221220e97dd6d64742acc521ee8b6941d3109d6590d002c979db4daf795c9fdaec14b064736f6c634300081c0033",
  "linkReferences": {},
  "deployedLinkReferences": {}
}